:100000000C94E9000C9411010C9411010C94110151
:100010000C9411010C9411010C9411010C94110118
:100020000C9411010C9411010C9411010C943E16C6
:100030000C9411010C9411010C9411010C941101F8
:100040000C949C150C9411010C940C160C94E61550
:100050000C9411010C9411010C9411010C941101D8
:100060000C9411010C941101CDCCCC3D0AD7233C4A
:1000700017B7D13877CC2B329595E6241FB14F0AAC
:10008000000020410000C84200401C4620BCBE4C7D
:10009000CA1B0E5AAEC59D746382536300010800EB
:1000A0000604000100504F53542024462048545465
:1000B000502F312E300D0A486F73743A2024460DAC
:1000C0000A244624534163636570743A202A2F2A18
:1000D0000D0A436F6E74656E742D4C656E6774689F
:1000E0003A2024440D0A436F6E74656E742D547962
:1000F00070653A206170706C69636174696F6E2F0E
:10010000782D7777772D666F726D2D75726C656EB1
:10011000636F6465640D0A0D0A245300474554203B
:100120002446245320485454502F312E300D0A4871
:100130006F73743A2024460D0A24460D0A0D0A00F6
:10014000450000820000400020436F6E74656E74AD
:100150002D547970653A206170706C6963617469BF
:100160006F6E2F6A736F6E003139322E3136382E32
:10017000322E31002F7365727669636500000000CE
:1001800000240027002A0000000000250028002B82
:100190000004040404040404040202020202020330
:1001A000030303030301020408102040800102043A
:1001B00008102001020408102000000008000201BD
:1001C00000000304070000000000000000004917C1
:1001D0008A1D11241FBECFEFD8E0DEBFCDBF12E0D5
:1001E000A0E0B1E0E0E1F5E402C005900D92A23696
:1001F000B107D9F724E0A2E6B2E001C01D92AE3EFD
:10020000B207E1F710E0C8EED0E004C02197FE018C
:100210000E945F20C73ED107C9F70E94E4170C94E3
:100220007B220C9400008F929F92AF92BF92FF921C
:100230000F931F93CF93DF93F090E7042BE02F15DC
:1002400008F44CC02091E90408E512E0021B1109F2
:1002500027FD1395000F111F000F111F2091E804B7
:10026000C8E8D0E0C21BD10927FDD395CC0FDD1F14
:10027000CC0FDD1F4E010D2E000CAA08BB08980103
:10028000012E000C440B550B281939094A095B094A
:10029000DC010E942E1F24EB30E040E050E00E9481
:1002A000041F820E931EA41EB51E8C169D062CF0F4
:1002B000E801801691060CF4E4012297CC0FDD1FB3
:1002C0002FB7F8948F2D90E0FC01EE0FFF1FE80F81
:1002D000F91FEC55FB4FD283C1832FBFDF91CF9124
:1002E0001F910F91FF90BF90AF909F908F900895B6
:1002F000CF93DF93209103042223C1F0FC012081DE
:100300002223A1F0C3E0D4E0AFEFB3E09C012C5F67
:100310003F4F899141919D918427892339F4E217B8
:10032000F307B9F781E0DF91CF91089580E0FBCF2B
:10033000CF93DF93EC01FB018A30910548F06AE02E
:1003400070E00E944B20CB01BF010E949801FC018C
:10035000CE016AE070E00E944B20805D80831182B4
:10036000CF010196DF91CF91089590E0FC01E75411
:10037000FE4F2491FC01EB55FE4F3491FC01EF56EA
:10038000FE4FE491EE23C9F0222339F0233001F12E
:10039000A8F4213019F1223029F1F0E0EE0FFF1F0F
:1003A000E957FE4FA591B4918FB7F894EC91611184
:1003B00026C030953E233C938FBF08952730A9F087
:1003C0002830C9F0243049F7809180008F7D03C028
:1003D000809180008F7780938000DFCF84B58F7706
:1003E00084BDDBCF84B58F7DFBCF8091B0008F774C
:1003F0008093B000D2CF8091B0008F7DF9CF3E2B9B
:10040000DACFCF93DF9390E0FC01EB55FE4F2491C0
:100410008F569E4FFC0184918823D1F090E0880F85
:10042000991FFC01E358FE4FA591B491FC01E957D7
:10043000FE4FC591D49161110EC09FB7F8948C9175
:10044000E22FE0958E238C932881E223E8839FBFDF
:10045000DF91CF9108958FB7F894EC91E22BEC9354
:100460008FBFF6CF3FB7F8948091FB039091FC03C8
:10047000A091FD03B091FE0326B5A89B05C02F3FB8
:1004800019F00196A11DB11D3FBFBA2FA92F982FBA
:100490008827BC01CD01620F711D811D911D42E0B5
:1004A000660F771F881F991F4A95D1F708952FB7B8
:1004B000F8946091F7037091F8038091F90390919B
:1004C000FA032FBF08950895AF92BF92CF92DF92A3
:1004D000EF92FF920F931F93CF93DF936C017B01F9
:1004E0008B01040F151FEB015E01AE18BF08C0178A
:1004F000D10759F06991D601ED91FC910190F081FD
:10050000E02DC6010995892B79F7C501DF91CF91BF
:100510001F910F91FF90EF90DF90CF90BF90AF9021
:100520000895FC01538D448D252F30E0842F90E0F9
:10053000821B930B541710F0CF96089501970895DE
:10054000FC01918D828D981761F0A28DAE0FBF2FA7
:10055000B11D5D968C91928D9F5F9F73928F90E0FD
:1005600008958FEF9FEF08950F931F930E945702F6
:1005700060930F04709310048093110490931204FD
:1005800087E094E00E94A00297FF1DC00E945702DE
:1005900000910F0410911004209111043091120465
:1005A000601B710B820B930B00910B0410910C04D8
:1005B00020910D0430910E04601771078207930794
:1005C000F8F28FEF9FEF1F910F910895FC01918D2D
:1005D000828D981731F0828DE80FF11D858D90E0A6
:1005E00008958FEF9FEF0895FC01918D228D892F43
:1005F00090E0805C9F4F821B91098F73992708952B
:1006000087E094E00E94F40221E0892B09F420E0C5
:10061000822F089580E090E0892B29F00E9400034A
:1006200081110C9400000895FC01A48DA80FB92F2E
:10063000B11DA35ABF4F2C91848D90E001968F730A
:100640009927848FA689B7892C93A089B1898C9129
:10065000837080648C93938D848D981306C0028878
:10066000F389E02D80818F7D80830895EF92FF9242
:100670000F931F93CF93DF93EC0181E0888F9B8DC5
:100680008C8D98131AC0E889F989808185FF15C07F
:100690009FB7F894EE89FF896083E889F9898081A2
:1006A0008370806480839FBF81E090E0DF91CF9171
:1006B0001F910F91FF90EF900895F62E0B8D10E093
:1006C0000F5F1F4F0F731127E02E8C8D8E110CC002
:1006D0000FB607FCFACFE889F989808185FFF5CF4D
:1006E000CE010E941403F1CFEB8DEC0FFD2FF11D15
:1006F000E35AFF4FF0829FB7F8940B8FEA89FB898A
:1007000080818062CFCFCF93DF93EC01888D8823E7
:10071000B9F0AA89BB89E889F9898C9185FD03C064
:10072000808186FD0DC00FB607FCF7CF8C9185FF49
:10073000F2CF808185FFEDCFCE010E941403E9CF77
:10074000DF91CF91089580919A0290919B02982712
:100750008927982744972091B80230E044E03595E6
:1007600027954A95E1F7220F331F220F331F821B73
:10077000930B97FF02C090E080E008950F931F93C2
:10078000CF93DF9370E066577D4F8A01075F1F4F5D
:10079000213029F0223031F48A010250110930E071
:1007A00020E003C000E010E09801EB01FA01E23024
:1007B000F10558F0A991B991BA27AB27BA270A0FCA
:1007C0001B1F211D311D3297F2CFFA01EE7F6E0FF4
:1007D0007F1F4E175F0769F0FB01408150E070E01A
:1007E00060E0762F652F542F4427040F151F261F16
:1007F000371FA90166277727411551056105710546
:1008000019F022273327F1CF00951095E82FF0E05B
:10081000E657FD4F10830183DF91CF911F910F9118
:100820000895EAE8F2E0108E118E80E4848B158A38
:10083000868B20E044E150E06EE088E10C94BE033A
:10084000DC011696ED91FC9117979F012F5F3F4FAA
:1008500017963C932E931697608381E090E008955D
:1008600090E080E008958EBD0DB407FEFDCF0895A1
:1008700061E08091BB030E94B50178940895F894DB
:1008800060E08091BB030C94B5010F931F93CF934D
:10089000DF93EC018B010E943F042097B9F08AE3BB
:1008A0000E9433041EBCF801CE01019739F00DB44B
:1008B00007FEFDCF2EB51EBC2193F7CF2197C00FA9
:1008C000D11F0DB407FEFDCF8EB58883DF91CF9188
:1008D0001F910F910C9438041F93CF93DF93182F1F
:1008E000C62FD42F0E943F048C2F8F71812B0E9422
:1008F00033048D2F0E943304DF91CF911F910C940C
:100900003804CF93C82FC076809164028C1799F079
:1009100043E06FE180EA0E946C04C09364024C2FB4
:1009200050E085E0559547958A95E1F76FE180E8BD
:10093000CF910C946C04CF910895CF93DF93C82F7F
:10094000D62F0E9481044D2F6C2F80E4DF91CF9130
:100950000C946C04CF93DF93C82FD72F0E949D0473
:100960006D2F81E08C0FDF91CF910C949D04CF937C
:10097000C82F0E9481040E943F048C2F8F710E9417
:10098000330480E00E943304C7FF03C080E00E946C
:100990003304CEB50E9438048C2FCF9108950F9365
:1009A0001F93CF93DF9300D000D000D0CDB7DEB738
:1009B00080916702882379F06091650270916602E8
:1009C0006115710509F053C06FEF7BE08CE00E9468
:1009D000AA041092670289E30E94B70410E000E0C5
:1009E0008823C9F1609165027091660280E00E94DF
:1009F000AA04BE016F5F7F4F86E090E00E9445042D
:100A000089819A8190936602809365028D819E818F
:100A10008C010078112787FF12C08B819C8104977D
:100A20000091BC031091BD0301501109801791077B
:100A300008F48C016AE872E0C8010E944504F801DC
:100A4000E657FD4F108281E08093670240E46EE13B
:100A500080E80E946C04C80126960FB6F894DEBFA9
:100A60000FBECDBFDF91CF911F910F9108956150BF
:100A70007109ACCFCF93DF93EC0140E86FE180E8E0
:100A80000E946C0440E86FE180EA0E946C044AE036
:100A90006CE180EA0E946C0460E07CE082E00E94ED
:100AA000AA04BE01745F86E00E94AA0440E060E0F0
:100AB0008AE70E946C040E943F042097B1F08AE705
:100AC0000E94330480918A028EBDEBE8F2E0C657A3
:100AD000DD4FEC17FD0731F081910DB407FEFDCF1E
:100AE0008EBDF7CF0DB407FEFDCF0E94380448E05D
:100AF0006FE180E80E946C04D0E0C0E08CE10E94CD
:100B0000B7048A7029F42196C83E83E0D807B1F76C
:100B10008CE10E94B70481FD03C0C83ED34039F484
:100B200048E06FE180EADF91CF910C946C04DF9193
:100B3000CF910895CF93DF93EB01682F84ED0E944E
:100B40009D04BE0186ED0E94AA048AEE0E94B704AD
:100B500080FDFBCFDF91CF910895CF92DF92EF928E
:100B6000FF920F931F938634910568F12091AD0297
:100B7000233449F5C090B802D090B902E090BA028F
:100B8000F090BB0200916D0210916E0220916F02F5
:100B900030917002C016D106E206F306A1F4E4EA31
:100BA000F3E086579D4F9F012E5F3F4F418150815B
:100BB000553319F45281651771F0F901E40FF11DF5
:100BC000E817F90780F380E01F910F91FF90EF90F5
:100BD000DF90CF90089581E0F7CFE0916202F0912D
:100BE00063029F012F5F3F4F3093630220936202A5
:100BF00080830895FF920F931F93CF93DF93162F57
:100C0000F42E052F0E94ED05812F0E94ED05CF2DBA
:100C1000D02F115020F089910E94ED05FACFDF917D
:100C2000CF911F910F91FF9008956F3FB1F0E62F84
:100C3000E295EF7044E0E49F90011124DC01ED9116
:100C4000FC91E20FF31F6F70B8E06B9FC00111249D
:100C500062817381860F971F089590E080E0089568
:100C6000FC01A281B3818081918130E020E0A8174E
:100C7000B90738F4CD010196938382836C9321E008
:100C800030E084819581820F931F9583848308953A
:100C9000CF93DF93FC0182819381EB01460F571FB5
:100CA000A281B38120813181A217B30758F4C41700
:100CB000D50741F02991BD016F5F7F4F7383628338
:100CC0002C93EECFA81BB90B84819581A80FB91F77
:100CD000B583A483DF91CF9108958F929F92AF92B5
:100CE000BF92CF92DF92EF92FF920F931F93CF9319
:100CF000DF93CDB7DEB766970FB6F894DEBF0FBEB1
:100D0000CDBF6C018E01095E1F4F78018AE0882EED
:100D1000912CA12CB12CCB01BA01A50194010E9408
:100D20006D1F942F852F605DF80162938F01A901DB
:100D3000692F782F411551056105710561F7A701EC
:100D40004E1B5F0BBF01C6010E94480666960FB698
:100D5000F894DEBF0FBECDBFDF91CF911F910F91F1
:100D6000FF90EF90DF90CF90BF90AF909F908F90CB
:100D70000895FC019289915084E0989F900111247C
:100D8000A089B189A20FB31F1296ED91FC91139720
:100D90003097E9F011962C9111978C912817B8F49F
:100DA00081E0820F11968C9388E0289FA001112486
:100DB000E40FF51F309759F014828FEF8583178267
:100DC0001682BF01892F8295807F820F089560E08F
:100DD00070E08FEF0895CF93DF93EC01A881B98184
:100DE000F0E0E0E0109741F1CD0104966817790733
:100DF000F1F412969C911297915012969C9312972F
:100E000091111AC08D919C911197309769F091833F
:100E10008083EA01E881F9810280F381E02DBD0140
:100E2000CA01DF91CF91099499838883F2CFFD01A4
:100E30000D90BC91A02DD6CFDF91CF9108958F92C8
:100E40009F92AF92BF92CF92DF92EF92FF920F9359
:100E50001F93CF93DF938C01EB01FC01848180FF12
:100E60000AC048815981608171816C5F7F4FCE01DA
:100E700003960E94EB06F8018481807681F10115CA
:100E8000110569F1D0805E01F5E1AF0EB11C4E0194
:100E900083E0880E911CEFEFDE16F1F06D2DC50199
:100EA0000E9415067C01FC01C580848187FF07C074
:100EB0004881598166817781C4010E94EB06BE0199
:100EC000C7010E941F07F701848180788483898D80
:100ED0008583D98EDC2CDFCFF801D082D182DF91DF
:100EE000CF911F910F91FF90EF90DF90CF90BF9027
:100EF000AF909F908F900895CF93DF93EC0160E0C7
:100F00008E810E94B50161E08E810E94B50160E092
:100F10008E810E94B5018BE891E00197F1F7DF9196
:100F2000CF910895CF92DF92EF92FF920F931F938C
:100F3000CF93DF936C017C0187E0E80EF11CD0E0D9
:100F4000C0E0062F10E0B8010C2E02C07595679521
:100F50000A94E2F76170F70181917F010E94B50167
:100F60002196C430D10579F7C601DF91CF911F9149
:100F70000F91FF90EF90DF90CF900C947C07CF9271
:100F8000DF92EF92FF920F931F93CF93DF93EC01C9
:100F9000F62E642F8C810E94B5018D818F3F19F050
:100FA00060E00E94B5010F2D10E08F8584FF25C001
:100FB0006E0187E0C80ED11CF12CE12CB8010E2C7B
:100FC00002C0759567950A94E2F76170F601819108
:100FD0006F010E94B501FFEFEF1AFF0A88E0E816E3
:100FE000F10461F7CE01DF91CF911F910F91FF9036
:100FF000EF90DF90CF900C947C07B80184E075955A
:1010000067958A95E1F7CE010E9492076F2DCE0178
:10101000DF91CF911F910F91FF90EF90DF90CF90D4
:101020000C94920740E0682F89EC94E00C94BF0781
:1010300081E00E9412088BE39FE10197F1F7089588
:10104000CF93DF93823029F49091D80498609093E5
:10105000D8048093DC041092DD0480E48093DE04E5
:1010600080E18093DF0480E58093E00461E080917B
:10107000CD040E9401028091CE048F3F19F061E0FF
:101080000E94010261E08091CF040E940102C9EC3C
:10109000D4E09E01295C34408091D80484FD0BC0CB
:1010A00084E090E021962817390744F461E08E81AE
:1010B0000E940102EECF88E090E0F4CF8BE39DE048
:1010C0000197F1F760E08091CD040E94B50160E0E6
:1010D0008091CF040E94B5018091CE048F3F19F01A
:1010E00060E00E94B5018091D80484FD34C063E0C3
:1010F00089EC94E00E949207CBE4D6E4CE010197FC
:10110000F1F763E089EC94E00E9492072197F1F7F0
:1011100063E089EC94E00E94920783E592E00197F6
:10112000F1F762E089EC94E00E9492078091D80484
:1011300080620E94120884E08093D9048CE00E94AF
:1011400012080E94180882E08093DA0486E0DF919A
:10115000CF910C94120880620E9412088BE496E4EE
:101160000197F1F78091D80480620E94120883E50C
:1011700092E00197F1F78091D80480620E941208F2
:10118000D5CF41E00E94BF0781E090E00895DC01E7
:1011900096E0FB0101900D929A95E1F70895BC014C
:1011A0008AE892E00E94C70865EC73E080E992E06B
:1011B0000C94C708DC0194E0FB0101900D929A9514
:1011C000E1F7089580E992E00E94CF0864EA72E0B6
:1011D00088EA92E00E94DA0863E074E084EA92E030
:1011E0000E94DA080C941104CF93DF93EB010E9464
:1011F000CF08BE0188EA92E00E94DA0863E074E05A
:1012000084EA92E0DF91CF910C94DA08FB0101901F
:101210000020E9F73197AF01461B570BDC01ED9138
:10122000FC910280F381E02D0994CF93DF93FC01C0
:10123000448155816081718187E094E00E9464025D
:10124000EC0166E771E087E094E00E9406098C0FEC
:101250009D1FDF91CF9108958F929F92AF92BF9281
:101260000F931F93CF93DF93CDB7DEB7A1970FB640
:10127000F894DEBF0FBECDBF19A2423008F44AE099
:101280008E010F5D1F4F842E912CB12CA12CA50136
:1012900094010E946D1FE62FB901CA01EA3004F5DE
:1012A000E05DD801EE938D01232B242B252B79F7BC
:1012B00090E080E0109729F0BD0187E094E00E9463
:1012C0000609A1960FB6F894DEBF0FBECDBFDF9121
:1012D000CF911F910F91BF90AF909F908F900895E5
:1012E000E95CDFCFCF93DF93BC0187E094E00E94FD
:1012F0000609EC0166E771E087E094E00E940609C8
:101300008C0F9D1FDF91CF910895FB01019000206C
:10131000E9F73197AF01461B570B0C9448061F9312
:10132000CF93DF93E9E7F1E01281112379F0329650
:1013300021816213F9CFEC016CE50E943006612F28
:10134000CE01DF91CF911F910C9430066111F9CF3E
:101350006AE871E0DF91CF911F910C948509CF92DB
:10136000DF92EF92FF920F931F93CF93DF938C0145
:101370006B017A0162E20E943006E601EC0CFD1C72
:10138000CE15DF0529F06991C8010E948F09F8CFB9
:1013900062E2C801DF91CF911F910F91FF90EF9012
:1013A000DF90CF900C9430062F923F924F925F9235
:1013B0006F927F928F929F92AF92BF92CF92DF9265
:1013C000EF92FF920F931F93CF93DF93CDB7DEB7CA
:1013D0006C970FB6F894DEBF0FBECDBF8C011B011A
:1013E000DC0114968C9114978F77883009F4B2C27F
:1013F000E8F4843009F469C248F4833009F49FC2E8
:1014000061E971E0C1010E9485091CC2853009F4BF
:1014100070C28630A9F78C9166E971E0811102C033
:101420006BE971E0C1010E9485096DC28C30F1F158
:10143000C8F48A3029F7CD90DD90ED90FC90B7018B
:10144000A601F7FE0BC06DE2C1010E9430064427E1
:101450005527BA014C195D096E097F09C1010E9427
:101460006D0651C2803209F4F7C1803449F66BE54C
:10147000C1010E943006F80110811F3F09F4E7C145
:10148000D10116968D919C91612F45960E9415066B
:101490008C01B1010E94D409F80115811F3F09F4A4
:1014A000D6C16CE2C1010E943006E7CFF801C080CE
:1014B000D180E280F380A7019601C701B6010E94A6
:1014C000D81D81119DCF20E030E0A901C701B601F0
:1014D0000E94D81D882379F0A7019601C701B601A3
:1014E0000E949F1F9B01AC01C701B6010E94D81D3D
:1014F000882309F485CF20E030E0A901C701B601B7
:101500000E94D81D87FF08C06DE2C1010E9430060D
:10151000F7FAF094F7F8F09420E836E948E15BE454
:10152000C701B6010E943A2087FD88C074E1A72E4A
:10153000B12C00E210E0188E1F8AF501E058FF4F31
:101540002591359145915491C701B6010E943A20E9
:1015500087FD13C0F501E859FF4F2591359145915D
:101560005491C701B6010E943E1E6B017C012F8978
:10157000388D200F311F388F2F8B1595079534E04C
:10158000A31AB1088CEFA8168FEFB806B1F6552450
:101590005A9420E030E0A901C701B6010E943A2028
:1015A00018160CF052C02CEA35EC47E257E3C7019D
:1015B000B6010E94D81D18160CF447C0A52DB4E042
:1015C000AB02C0011124B12CA12CFC01E859FF4F42
:1015D0003F019C0120583F4F49013FEF531609F44A
:1015E00034C0F301EA0DFB1D6591759185919491CD
:1015F00020E030E040E251E40E943E1EA701960147
:101600000E943A2018169CF4F401EA0DFB1D259166
:10161000359145915491C701B6010E943E1E6B0160
:101620007C018F89988D801B910B988F8F8B1595DE
:1016300007955A9494E0A91AB108CFCF00E210E0C0
:1016400055E0552E188E1F8AA4CFC701B6010E94FF
:101650000B204B015C012B013C0106E080E492E48D
:10166000AFE0B0E0898F9A8FAB8FBC8F102F015005
:101670009AE04916510461047104C8F0698D7A8DAD
:101680008B8D9C8D2AE030E040E050E00E946D1F81
:10169000298F3A8F4B8F5C8FC301B2012AE030E073
:1016A00040E050E00E946D1F29013A01DFCFC501E3
:1016B000B4010E94DD1D9B01AC01C701B6010E946F
:1016C0009E1F6B017C01698D7A8D8B8D9C8D0E9494
:1016D000DD1D9B01AC01C701B6010E943E1E2B011E
:1016E0003C010E940B206B017C010E94DD1D9B01CF
:1016F000AC01C301B2010E949E1F9B01AC010E947C
:101700009F1F0E940B20C60ED71EE81EF91E898D52
:101710009A8DAB8DBC8DC816D906EA06FB06D8F0AB
:101720009FEF891A990AA90AB90AAF89B88DAB2B1C
:1017300039F1BAE08B169104A104B10408F1EF89E4
:10174000F88D3196F88FEF8BC12CD12C7601812C3E
:10175000912C540183942AE0422E512C612C712C3F
:10176000C701B601A30192010E946D1F672B682B70
:10177000692B51F4111644F469017A011150F0CF2C
:10178000C12CD12C7601E7CFB501A401C1010E9483
:101790006D06112371F14E01F1E18F0E911C012FA5
:1017A00054019AE0492E512C612C712C015068F0A3
:1017B000C701B601A30192010E946D1F605DD401B3
:1017C0006E934D0169017A01F1CF812F90E0BC0148
:1017D00060957095F501E81BF90B31978EE28083D7
:1017E00044275527461B570B6A0D7B1DC1010E94DC
:1017F0004806EF89F88DEF2B29F165E6C1010E94BB
:1018000030060F89188D17FF07C06DE2C1010E94D5
:101810003006119501951109FE0177969F018AE026
:10182000E82EF12CC801B7010E944B20805D829305
:101830008B01672BB9F7A9014E1B5F0BBF01C101DB
:101840000E944806D10114968D919C915FC06DE570
:10185000C1010E943006F6CF6BE7C1010E9430063D
:10186000F80110811F3F79F1D10116968D919C915D
:10187000612F45960E9415068C01FC01C680D78019
:1018800062E2C1010E9430067601D7016D917D01AF
:10189000662321F0C1010E948F09F7CF62E2C101E6
:1018A0000E9430066AE3C1010E943006B101C801FE
:1018B0000E94D409F80115811F3F29F06CE2C10193
:1018C0000E943006CFCF6DE7C3CFF80160817181F0
:1018D00050E040E06115710541F0FB0101900020EE
:1018E000E9F73197AF01461B570BC1010E94AF09C1
:1018F000A9CFED91FC91438150E0BF016C5F7F4F18
:10190000C1010E94AF09F101848195816C960FB6E7
:10191000F894DEBF0FBECDBFDF91CF911F910F9125
:10192000FF90EF90DF90CF90BF90AF909F908F90FF
:101930007F906F905F904F903F902F900895ED9122
:10194000FC91438150E0BF016C5F7F4FC1010E9459
:101950004806D9CF4D915D916D917C917FCD0F93CC
:101960001F93CF93DF93EC0188819981009759F001
:101970002A813B812617370730F081E0DF91CF9134
:101980001F910F9108958B016F5F7F4F0E948A21F5
:10199000009759F0998388831B830A832C813D81AA
:1019A000232B59F7FC011082E8CF80E0E7CFCB0171
:1019B000BA010C948A21CF93DF93EC01888199813D
:1019C000009711F00E940121198218821D821C8249
:1019D0001B821A82DF91CF910895EF92FF920F93AD
:1019E0001F93CF93DF93EC017B018A01BA010E9420
:1019F000AF0C81110BC0CE010E94DB0CCE01DF9138
:101A0000CF911F910F91FF90EF9008951D830C834C
:101A1000B701888199810E946622F0CFFB01019075
:101A20000020E9F73197AF01461B570B0C94ED0CE2
:101A3000FC0180819181009711F00C94012108959F
:101A4000CB010C940121CF93DF93EB0144E050E0F4
:101A5000BC0186EA92E00E944722892B49F460EAA1
:101A600072E0CE010E94C70881E0DF91CF91089516
:101A700080E0FBCF0F931F93CF938C0182E591E021
:101A80000E94CF08EAE8F2E088E08487C6E0C587D4
:101A900048E050E06CE970E088E992E00E948E1D19
:101AA000EAEAF2E0DF011D92CA95E9F765EC73E01E
:101AB00080EA92E00E94C708B80180EB92E00E94A1
:101AC000DA0863E074E086EA92E00E94DA088AE2CB
:101AD00090E0CF911F910F910C943A05EF92FF92F5
:101AE0000F931F93CF93DF938C01EAE8F2E086E136
:101AF00091E0DF019C011D9221503040E1F780917F
:101B00007D02C2E5D1E0833011F4C8E6D2E0CE0117
:101B10000E947801BE01882309F4ACC08EE792E0F0
:101B20000E94F4088881807F803E91F088819981AD
:101B3000AA81BB818F3F9F4FAF4FBF4F49F044E019
:101B400050E0BE018BEC93E00E944722892B31F4D8
:101B500062E571E08AE892E00E94C70888E080931D
:101B600096021092970249E050E060E471E088E943
:101B700092E00E948E1D10929A0281E18093A10250
:101B80001092AE0283E48093AF021092AC0284E420
:101B90008093AD021092B0021092B2021092B30282
:101BA00062E571E08AE892E00E94C70881E08093D4
:101BB000B4028093B50286E08093B60280916D02F4
:101BC00090916E02A0916F02B09170028093B80262
:101BD0009093B902A093BA02B093BB02C0917D0268
:101BE000C33031F463E074E080EC92E00E94DA08E4
:101BF00065EC73E080ED92E00E94C70880EA93E014
:101C00009093630280936202E8E9F0E084910E947D
:101C1000ED05E9E9F0E084910E94ED05EAE9F0E0E4
:101C200084910E94ED05EBE9F0E084910E94ED05BE
:101C300085E30E94ED0581E00E94ED0583E0C1117E
:101C400001C081E00E94ED058DE30E94ED0587E073
:101C50000E94ED0581E00E94ED0585ECE82E83E011
:101C6000F82EC7E0C15049F0D7018D917D010E9447
:101C7000ED05F8CF84E892E053CF809100018823EE
:101C800071F060E071E0FB0101900020E9F7BF0115
:101C90006150714040E051E08CE00E94FA0501156E
:101CA000110559F0A80164E082E30E94FA0548E6B4
:101CB00052E064E086E30E94FA0587E30E94ED05A6
:101CC00083E00E94ED0581E00E94ED0583E00E9423
:101CD000ED0586E00E94ED058FEF0E94ED05C091B5
:101CE0006202D0916302C45BD240CE014C969093C5
:101CF0009A0280939B020E941104CE010896909351
:101D0000B0028093B102AE01405F5F4F21E06AE113
:101D100088E20E94BE03CE018A96DF91CF911F9187
:101D20000F91FF90EF900C943A058F929F92AF9293
:101D3000BF92CF92DF92EF92FF920F931F93CF93B8
:101D4000DF9300D000D0CDB7DEB77C018091D903FE
:101D5000882369F080917D02823009F4F1C008F097
:101D6000E9C0882309F474C1813009F490C1E114F9
:101D7000F10409F02BC28091DA03857029F180917A
:101D8000D3039091D403892BF9F461E184ED0E948F
:101D90009D0461E082ED0E949D048AEE0E94B704DA
:101DA00080FDFBCF60E082ED0E949D0489ED0E94E2
:101DB000B70482FF09C08FEC93E00E943A0D809136
:101DC000DA0388608093DA038091D3039091D4037F
:101DD00001969093D4038093D3038091E0038130E4
:101DE00009F079C08091DA0381FF75C082E08093A9
:101DF000E003809121018F5F80932101F090E10346
:101E0000E090E2031091DF03A0E21A9F90011124F9
:101E10008F71182F122B8BED93E00E9478016BEDE0
:101E200073E0882309F4BFC18EE792E00E94F408B2
:101E300008E0009396021092970249E050E060E4B7
:101E400071E088E992E00E948E1D8CE280939B02F3
:101E500086E08093A1020E941104E092AE02F0920B
:101E6000AF028BE08093AC021093AD02E0EBF2E0A6
:101E7000DF011D920A95E9F7809120018093B2025B
:101E80008D5F8093200180E68093B80282E080938A
:101E9000B90293E09093BA021092BB021092BC0276
:101EA0001092BD021092BE021092BF028093C00237
:101EB00094E09093C1028093C20286E28093C302B1
:101EC00022E040E250E06AE182E30E94BE038AE33E
:101ED00090E00E943A0585ED93E00E947801882306
:101EE00079F08091B90381110BC08091B803811101
:101EF00007C085ED93E00E943A0D81E08093B8031E
:101F00008BED93E00E947801811150C110E000E058
:101F1000C8010F900F900F900F90DF91CF911F91FC
:101F20000F91FF90EF90DF90CF90BF90AF909F9078
:101F30008F900895833009F456C0843009F017CF8C
:101F400065E0C7010E94AD05882309F4C9C08091EE
:101F50006C02811108C088E30E94B704682F6E7F6D
:101F600088E30E949D0464EC72E083E094E00E94A8
:101F7000DA08E4EAF3E0C70186579D4F6C018F0150
:101F80000E5F1F4FB1808081863009F4FBC008F0DE
:101F9000BEC0813009F4ECC0833009F4EFC0F80111
:101FA000EB0DF11DEC15FD0550F30E9457026093F7
:101FB00075027093760280937702909378028091F5
:101FC000CF03882361F01092D4031092D30381E0F1
:101FD0008093DA036FEC73E0CB010E94DA0883E0B0
:101FE00080937D02C4CE8090790290907A02A09076
:101FF0007B02B0907C022FEF82169206A206B206F8
:1020000009F4B5CE0E945702009175021091760234
:102010002091770230917802601B710B820B930B39
:10202000681579058A059B0508F4A1CE83E094E044
:102030000E946E0D84E080937D020E94570260939F
:1020400071027093720280937302909374028FCE28
:102050000E94570260936D0270936E0280936F022C
:1020600090937002E3E0F4E084E0DF011D928A9532
:10207000E9F790E080E00E946E0D88E30E94B704CB
:10208000682F616088E30E949D0481E0D4CF62E004
:10209000C7010E94AD05882319F164EC72E0CE01FE
:1020A00001960E94DA08E4EAF3E0C70186579D4FE3
:1020B000BF016E5F7F4F21813081363351F488E656
:1020C00092E00E94DA08CE0101960E946E0D82E035
:1020D000B2CFFB01E20FF11DE817F90748F3F3CF88
:1020E0000E945702009171021091720220917302B6
:1020F00030917402601B710B820B930B613177423C
:102100008105910508F433CE10927D0230CE8A33DA
:1021100031F08F3F09F449CF833309F040CF10925B
:10212000790210927A0210927B0210927C02F801DE
:10213000C801049620E030E0A9016191542F432F9B
:10214000322F2227260F311D411D511D8E179F074B
:10215000A1F72F3F9FEF390749075907B9F420939B
:10216000790230937A0240937B0250937C0217CF1E
:10217000B8018FEF93E00E94DA0811CFB8018FEC1D
:1021800093E0F9CFB80185ED93E0F5CFA8EEB3E089
:102190000E94231F6093790270937A0280937B02DE
:1021A00090937C02FCCE84E892E040CE8091B7030D
:1021B0008111ACCE8091B6038111A8CE8BED93E056
:1021C0000E943A0D81E08093B603A0CEB9E2EB16EF
:1021D000F10408F49BCE80919602883009F096CEE7
:1021E00080919702863009F09FC144E050E063E09F
:1021F00074E080EB92E00E944722892B09F086CEA2
:1022000080919F02813029F580E992E00E94CF08F9
:1022100010929E0282E080939F0260EA72E08AEA56
:1022200092E00E94C70865EC73E080EA92E00E94A9
:10223000C70866EA72E080EB92E00E94DA0863E089
:1022400074E086EA92E00E94DA088AE290E00E9456
:102250003A058091DA0383FF0DC010919F0212307E
:1022600049F464E872E08FEC93E00E94230D811141
:102270001093DA038091B903811111C08091B803E2
:10228000882369F06EE772E085ED93E00E94230DEC
:10229000882329F081E08093B9031092B8038091DC
:1022A000B703811133CE8091B603882309F42ECE73
:1022B0006EE772E08BED93E00E94230D882309F412
:1022C00025CE81E08093B7031092B6031FCE26E39C
:1022D000E216F10408F41ACE863009F017CE809188
:1022E000AE028B3009F0BAC044E050E06BED73E011
:1022F00084EA92E00E944722892B09F007CED09011
:10230000B902D2FE15C0E091E503F091E6033097E3
:1023100059F08091AF0230E020E050E040E063E00F
:10232000829586958770099585E08093E003EECDD0
:102330000E94A3038C018091E003823009F045C024
:102340009D2D90718D2D8271823189F560E090E034
:1023500080E00E94251788E18093B902E091E303B1
:10236000F091E40310E000E0309739F08091AD0285
:1023700082958695877009958C0183E08093E003B0
:10238000C801889690939A0280939B020E94110440
:102390001092BC021092BD02A801445E5F4F22E081
:1023A0006AE182E30E94BE03C801C69603C181E0D0
:1023B0008093E003911106C0C801019664E00E9479
:1023C0002517A4CD90E080E0F9CF8330A1F5011569
:1023D0001105A1F1E091E503F091E603309771F169
:1023E0008091B80290E024E0959587952A95E1F7D1
:1023F000880F991F880F991F8296A701485051098D
:102400008417950708F4AC01C801840F951F970144
:10241000241B350BE816F90608F098018091AF02ED
:1024200060E0829586958770099569E0C8010E94F1
:10243000251786E07ACF853009F468CDD0FE07C035
:10244000833009F463CD69E0C8010196F0CF01152E
:10245000110509F45BCD60E0C801B1CF811156CD03
:102460008091AF02803509F051CDD090B902D1FEF4
:1024700039C010929A028CE280939B020E94E2087B
:1024800082E18093B90260E081E090E00E94FA1658
:102490001092B0021092B102809120018093B2029A
:1024A0001092B3028D5F8093200182E08093C0027E
:1024B00084E08093C10285E08093C2021092C3023F
:1024C00090E69093B8028093BA0288E78093BB02AB
:1024D00022E040E250E06AE182E30E94BE038AE328
:1024E00090E068C0D4FE12CD0E94A3038C01892B1A
:1024F00099F00091B80210E084E0159507958A954F
:10250000E1F7000F111F000F111F0E5D1F4FE016A6
:10251000F10608F0FDCCFACCD0FEF8CC60E090E0FB
:1025200080E00E942517F4CC99E2E916F10409F441
:10253000EDCC8111EBCC80919802853409F0E6CC8A
:1025400044E050E063E074E088EA92E00E944722B1
:10255000892BA9F044E050E06BEC73E088EA92E04C
:102560000E944722892B59F044E050E062E571E077
:1025700088EA92E00E944722892B09F0C7CC80911B
:10258000A102813009F0A3CE8091AC02883009F01D
:10259000BDCC0E94E2081092AC028091AE02883F4E
:1025A00028F09091AF029F5F9093AF02885F809375
:1025B000AE02C7010E943A05A9CC0F931F93CF9397
:1025C000DF9389019091E703981781F0E091E80388
:1025D000F091E90350E040E070E060E084E00995AC
:1025E00080E0DF91CF911F910F9108956111F8CF95
:1025F0002D303105A8F3C091E803D091E90320976D
:1026000079F3BA016D567D4F43E050E081EA91E0E5
:102610000E946D226091B80270E024E07595679584
:102620002A95E1F7660F771F660F771F6E5D7F4F64
:1026300021E0892B09F420E0A801822FFE01CFCFF1
:10264000AF92BF92CF92DF92EF92FF920F931F93C0
:10265000CF93DF93CDB7DEB7ED84FE84CF84D888E7
:102660008E010F5E1F4FC6010196F60124912223B1
:1026700009F4D1C0243279F0D7011696ED91FC917E
:102680001797AF014F5F5F4F17965C934E93169766
:1026900020836C01E8CFB2E0CB0ED11CFC01849109
:1026A000863409F481C0A0F4843409F44CC0853424
:1026B00009F494C0D7011696ED91FC9117979F01EC
:1026C0002F5F3F4F17963C932E9316978083CBCF67
:1026D000D70116964D915C918C3409F44DC0833529
:1026E00009F457C0883431F7B8016E5F7F4FF801A5
:1026F0009081292F092E000C330B84E03595279506
:102700008A95E1F72F709F709A300CF0995F905D79
:102710002A300CF0295FFA013196D7011796FC9305
:10272000EE931697205DFA0120831696ED91FC91A9
:1027300017979F012F5F3F4F17963C932E93169745
:1027400090838B0190CF5801B2E0AB0EB11CF70122
:1027500066817781D8018D919C910E949801F70143
:1027600086819781DC010D900020E9F7CD0101976A
:1027700097838683850177CF5801F4E0AF0EB11CB3
:10278000D8016D917D918D919C912AE00E94971DB9
:10279000E6CF5801B2E0AB0EB11CF8016081718147
:1027A000CA010E946622DBCFF8010190F081E02D82
:1027B0000E5F1F4F84913196882309F454CFD701BF
:1027C00016964D915C9117979A012F5F3F4F179680
:1027D0003C932E931697DA018C93ECCFF80180810D
:1027E00091810E5F1F4F5C01BFEFAB1ABB0A0E94C5
:1027F000FC1E882309F437CFD7011696ED91FC9182
:1028000017979F012F5F3F4F17963C932E93169774
:102810008083C501E8CFDF91CF911F910F91FF9089
:10282000EF90DF90CF90BF90AF9008950F931F93DC
:10283000CF93DF93CDB7DEB728970FB6F894DEBFFE
:102840000FBECDBF1C821B822AE431E03A8329836C
:1028500020EC32E03E832D8338872F839091E7036D
:1028600098132AC0A091EA03B091EB031091EE03F4
:102870000091EF036091F0037091F1038091EC03FC
:102880009091ED03AE014F5F5F4F109731F59F932D
:102890008F930F931F931F921F927F936F938CE1DF
:1028A00091E09F938F935F934F930E9420130FB6F5
:1028B000F894DEBF0FBECDBF8F8198852D813E81FC
:1028C000821B930B28960FB6F894DEBF0FBECDBFC8
:1028D000DF91CF911F910F910895FD01019000208C
:1028E000E9F73197EA1BFB0B26E731E0009721F46B
:1028F00029E831E084EA90E0BF93AF93FF93EF9330
:102900003F932F939F938F930F931F937F936F9377
:1029100085EA90E09F938F935F934F930E942013DB
:10292000C6CFCF92DF92EF92FF920F931F93CF9378
:10293000DF93CDB7DEB72C970FB6F894DEBF0FBE8E
:10294000CDBF8B0165EA71E087E094E00E94060943
:102950000E945702C090F203D090F303E090F4037A
:10296000F090F5036C197D098E099F094AE00E94D9
:102970002C0980EB91E00E947209B80166577D4FE7
:1029800018861F821A8619861C861B86611571059A
:1029900021F0CE0107960E940E0DEB84FC846701A6
:1029A0008EE0C81AD108EC14FD0428F09E2D8F2D5E
:1029B0007601C92ED82E1A8219821C821B821E8291
:1029C0001D8269E871E0CE0101960E940E0D0B8513
:1029D0001C85E016F10620F5C016D10608F4860124
:1029E000EF81F885E00FF11FD08010826F8178852C
:1029F0006E0D7F1D6115710509F461C0FB01019029
:102A00000020E9F73197AF01461B570BCE01019625
:102A10000E94ED0C8F819885080F191FF801D08254
:102A20008F819885009709F451C069817A81611579
:102A3000710509F449C049855A852D813E814217A7
:102A4000530708F441C00E9466228D819E819C87B5
:102A50008B871E821D82CE0101960E94180D8B85E8
:102A60009C85892BC9F00F81188564EB71E0C80142
:102A70000E945D22892BD9F584EB91E00E947209B6
:102A80000E94180864EB71E089EC94E00E9406094A
:102A900090E080E00E941301CE0107960E94180D7D
:102AA0002C960FB6F894DEBF0FBECDBFDF91CF914D
:102AB0001F910F91FF90EF90DF90CF900895CE017E
:102AC00001960E94DB0CA6CF0E94012189819A8188
:102AD00098878F838B819C819A8789878D819E813E
:102AE0009C878B871A8219821C821B82B2CF63EC6F
:102AF00071E0C8010E945D22892B71F661E089E0D6
:102B00000E94B5018AE590E00E94130181EE94E0F5
:102B10000E9415090E9418084091E5045091E604AE
:102B20006091E1047091E20489EC94E00E946402F7
:102B3000B3CFCB010C9465201F920F920FB60F926A
:102B400011242F933F938F939F93AF93BF938091C3
:102B5000F7039091F803A091F903B091FA03309133
:102B6000F60323E0230F2D3758F50196A11DB11D63
:102B70002093F6038093F7039093F803A093F9034F
:102B8000B093FA038091FB039091FC03A091FD03A5
:102B9000B091FE030196A11DB11D8093FB0390939C
:102BA000FC03A093FD03B093FE03BF91AF919F91EF
:102BB0008F913F912F910F900FBE0F901F901895FE
:102BC00026E8230F0296A11DB11DD2CF1F920F92AE
:102BD0000FB60F9211242F933F934F935F936F93F0
:102BE0007F938F939F93AF93BF93EF93FF9387E070
:102BF00094E00E941403FF91EF91BF91AF919F91D8
:102C00008F917F916F915F914F913F912F910F9095
:102C10000FBE0F901F9018951F920F920FB60F9234
:102C200011242F938F939F93EF93FF93E0911704B9
:102C3000F09118048081E0911D04F0911E0482FD42
:102C40001BC09081809120048F5F8F73209121049D
:102C5000821741F0E0912004F0E0E95FFB4F958F8F
:102C600080932004FF91EF919F918F912F910F906E
:102C70000FBE0F901F9018958081F4CF1F920F9276
:102C80000FB60F9211242F933F934F935F936F933F
:102C90007F938F939F93AF93BF93CF93DF93EF93E4
:102CA000FF938091BA03C091C804D0E087FF24C08D
:102CB00010928500109284008091BA038F5F8093F8
:102CC000BA038091BA03082E000C990B8C179D074C
:102CD00024F48091BA038C30C4F1809184009091E7
:102CE0008500049680349C4908F47AC08091840061
:102CF00090918500049676C08091BA03082E000C4E
:102D0000990B8C179D07C4F6E091BA038E2FEE0F36
:102D1000990BFC01EE0FFF1FE80FF91FEC55FB4F5D
:102D2000808186FFC9CFE091BA038E2FEE0F990BF9
:102D3000FC01EE0FFF1FE80FF91FEC55FB4F8081E0
:102D400060E08F730E94B501B7CF2091840030916D
:102D50008500E091BA038E2FEE0F990BFC01EE0F68
:102D6000FF1FE80FF91FEC55FB4F81819281820F05
:102D7000931F9093890080938800E091BA038E2F6F
:102D8000EE0F990BFC01EE0FFF1FE80FF91FEC553A
:102D9000FB4F808186FF11C0E091BA038E2FEE0FAA
:102DA000990BFC01EE0FFF1FE80FF91FEC55FB4FCD
:102DB000808161E08F730E94B501FF91EF91DF91F7
:102DC000CF91BF91AF919F918F917F916F915F91C3
:102DD0004F913F912F910F900FBE0F901F9018951C
:102DE00080E49CE990938900809388008FEF809322
:102DF000BA03E3CF2091AE023091AC023093AE0221
:102E00002093AC022091AF023091AD023093AF021B
:102E10002093AD02EAE8F2E021A5820F911D25A5DD
:102E200085A7662381F021A7892F9927319722E072
:102E3000E638F20789F71092BC021092BD0280E5D5
:102E40008093B802089511A6EFCF262F206120931A
:102E5000B902643021F0009711F481E090E061E064
:102E60000E94FA1610929A0288E280939B020E94B6
:102E7000E20884E08093BA021092BB0222E04CE1A7
:102E800050E06AE182E30E94BE0386E390E00C9486
:102E90003A0510920A041092090488EE93E0A0E02B
:102EA000B0E080930B0490930C04A0930D04B093B6
:102EB0000E048CE591E0909308048093070485EC60
:102EC00090E0909314048093130484EC90E090932A
:102ED00016048093150480EC90E09093180480937E
:102EE000170481EC90E090931A048093190482EC0B
:102EF00090E090931C0480931B0486EC90E09093E8
:102F00001E0480931D04109220041092210410923C
:102F10002204109223048091C8048C3008F050C021
:102F200091E0980F9093C8048093E70490E0FC012F
:102F3000EE0FFF1FE80FF91FEC55FB4F88EB9BE0EE
:102F4000928381831092E2041092E1041092E404CF
:102F50001092E3041092E6041092E50469E871E02F
:102F600081EE94E00E940E0D1092CC041092CB04DE
:102F70008EE691E09093CA048093C90487E0809321
:102F8000CD048FEF8093CE0488E08093CF0486E059
:102F90008093D00485E08093D10484E08093D204B0
:102FA00083E08093D3041092D4041092D50410923D
:102FB000D6041092D7041092D80481E00C94200813
:102FC0008FEF8093E704BECFCF93DF93CDB7DEB70B
:102FD000C75FD1090FB6F894DEBF0FBECDBF78949E
:102FE00084B5826084BD84B5816084BD85B582600E
:102FF00085BD85B5816085BD80916E0081608093BF
:103000006E00109281008091810082608093810027
:103010008091810081608093810080918000816037
:10302000809380008091B10084608093B100809192
:10303000B00081608093B00080917A0084608093BA
:103040007A0080917A00826080937A0080917A0081
:10305000816080937A0080917A00806880937A0002
:103060001092C10061E089E00E9401028091E704B2
:103070008C3008F051C061E082E00E940102809132
:10308000E704282F30E0F901EE0FFF1FE20FF31FD6
:10309000EC55FB4F9081907C926090831092E804F5
:1030A0001092E9042CE0622F0E943F20829FB00121
:1030B000112430E020E0AB01420F531FFA01EE0F64
:1030C000FF1FE40FF51FEC55FB4F908196FD16C0D6
:1030D0002F5F3F4F2C30310571F781110FC01092D7
:1030E000800082E08093810010928500109284001D
:1030F000B19A80916F00826080936F00E091E70445
:103100008E2F90E0FC01EE0FFF1FE80FF91FEC552A
:10311000FB4F80818064808390E080E00E941301F7
:1031200082E00E942008E0911704F091180482E0E8
:103130008083E0911304F09114041082E09115044F
:10314000F09116048FEC808310921F04E0911B0411
:10315000F0911C0486E08083E0911904F0911A0438
:10316000808180618083E0911904F0911A0480814C
:1031700088608083E0911904F0911A04808180684E
:103180008083E0911904F0911A0480818F7D8083FF
:1031900082ED91E00E9472091092D90387E390E0DA
:1031A000C12CD12C7601C3940097C1F0FC01A3E09F
:1031B000F595E795AA95E1F7E254FC4F282F277083
:1031C000B701A60104C0440F551F661F771F2A953B
:1031D000D2F72081242B20830197E6CF6EE271E0A5
:1031E00085EC93E00E94C7088CE291E09093BD03C8
:1031F0008093BC030CB406FC25C061E08AE00E9409
:10320000010261E08AE00E94B50161E08BE00E946A
:10321000010261E08DE00E94010260E08CE00E940A
:10322000010261E08BE00E94B50160E08BE00E944A
:10323000B50160E08DE00E94B50180E58CBD8DB5E3
:1032400081608DBD8AE08093BB0361E00E94010232
:103250000E9438044FEF60E08FEF0E946C040E94E0
:1032600032026B017C0172E0872E912CA12CB12CD3
:103270000E9432026C197D098E099F09683E7340D5
:1032800081059105A8F328EEC20E23E0D21EE11CB1
:10329000F11C8A9489288A288B2829F0812C912C6A
:1032A00054018394E5CF0E943F048DE10E943304D2
:1032B00080E00E9433041EB50E943804112399F364
:1032C00070E060E088E00E94AA0470E060E08CE0BA
:1032D0000E94AA046FEF7BE08AE00E94AA0460E0EB
:1032E0007CE084E00E94AA046FEF71E186E00E9416
:1032F000AA0466E774E084E10E949A0561EB88E322
:103300000E949D046FE370E388E20E94AA0469EFC3
:1033100077EF80E30E94AA0461E080EC0E949D04A4
:1033200042E362EC80E80E946C0462E17CE086EC9F
:103330000E94AA0462E184EC0E949D046CED75E099
:103340008AEC0E94AA046091C50384EE0E949D0449
:103350006091C60385EE0E949D046091C70382EED2
:103360000E949D046091C80383EE0E949D046091B9
:10337000C90380EE0E949D046091CA0381EE0E9401
:103380009D0460E071E080E10E949A058FE10E9457
:10339000810440EC6BE180E80E946C0444E06FE142
:1033A00080E80E946C0482E70E94B704863008F02F
:1033B0008F5F811104C081EE91E00E94720910922A
:1033C000D9036AE271E083E094E00E94DA08109287
:1033D000D4031092D30381E08093DA0366E271E0B4
:1033E0008FEC93E00E94DA08E3E0F4E02FEF33E0A3
:1033F0006BEC73E047E054E09191D9018D919D0110
:103400008095892BDB018D93BD014E175F07A1F7D6
:1034100062E271E08BED93E00E94DA0866E072E010
:1034200087E094E00E9406095BEDE52E53E0F52E5F
:1034300010E0F70161917F0170E090E080E04AE0E8
:103440000E942C09133029F06EE287E094E00E947C
:1034500036031F5F143069F766E771E087E094E098
:103460000E9406098091DA0381FD05C00E94CF0405
:103470000E94950EF7CF8FE092E00E94720988E7D4
:103480009CEEAFEFBFEF8093F2039093F303A09312
:10349000F403B093F50349EC842E912C8C0E9D1E01
:1034A000F5E08F0E911C39EC232E312C2C0E3D1E95
:1034B00025E0220E311C89ECA82EB12CAC0EBD1ECD
:1034C00035E1A30EB11C98E5492E92E0592ECA5061
:1034D000DF4FA882C65FD040C950DF4FB882C75FB8
:1034E000D04029EC622E712C6C0E7D1E8AE1680E94
:1034F000711C0E94CF040E94950E0E945702AB01DE
:10350000BC018091F2039091F303A091F403B09178
:10351000F50388579C4EAF4FBF4F84179507A607FA
:10352000B70708F0C5C20E9457026093F203709378
:10353000F3038093F4039093F5038DE192E00E94EE
:1035400072090E941808E1E08091DC048111E0E03A
:10355000E195F0E0E753FB4F848980680E941208F0
:1035600066E272E089EC94E00E940609E091DC04D6
:10357000E23008F06AC0E150F0E0E753FB4F848985
:1035800080680E94120862E372E089EC94E00E9475
:10359000060960E089E00E94B50190E080E00E94A9
:1035A000130187E094E00E94F402181619060CF04B
:1035B0007FC2C051DF4F19821882C05FD040CE5009
:1035C000DF4F19821882C25FD040CC50DF4F198282
:1035D0001882C45FD04069E871E0CE0180519F4FEE
:1035E0000E940E0D0E94B40297FD31C08D309105EE
:1035F00071F189831A82CC50DF4F08811981C45F31
:10360000D0400F5F1F4FB801CE0180519F4F0E94E5
:10361000AF0C882339F3C051DF4F28813981C05F57
:10362000D040CC50DF4F88819981C45FD040BE012B
:103630006F5F7F4F820F931F0E946622CC50DF4F37
:1036400019830883C45FD040CDCFE1E095CF6AE312
:1036500072E087E094E00E940609CE0180519F4FFE
:103660000E941509C051DF4F68817981C05FD04049
:103670006115710509F4ACC0CC50DF4F4881598108
:10368000C45FD04081EE94E00E94ED0CA4E3B1E071
:10369000C753DF4FB983A883C95CD040C553DF4F00
:1036A0001882CB5CD040C453DF4F19821882CC5CA7
:1036B000D040C252DF4F39822882CE5DD040C05206
:1036C000DF4F1882C05ED04084E0CF51DF4F888347
:1036D000C15ED0408FEFCE51DF4F8883C25ED040B5
:1036E00090E2C951DF4F9883C75ED040CD51DF4F84
:1036F0008883C35ED040CC51DF4F8883C45ED04006
:103700006FEFC5010E9415068C01009709F4DDC119
:10371000FC016581892B09F4D8C10680F781E02D71
:10372000309709F45AC0DF010D900020E9F7CD0170
:1037300009978E179F0709F050C0A8E5B2E0CF01A6
:1037400008963D912191321348C08E179F07C9F703
:10375000CC50DF4FE880F980C45FD040C051DF4FCC
:10376000C880D980C05FD040BE0167537F4FC80179
:103770000E941F07D80114968C9114978078149694
:103780008C93C114D10409F46BC0C453DF4FE8819A
:10379000F981CC5CD04097012C0D3D1D309709F488
:1037A000FDC083818E151F0479F4B601CF01049604
:1037B0002617370709F4E3C0DB015D91BD01DC0189
:1037C0004D91CD015417A1F30190F081E02DE6CF8A
:1037D00081EE94E00E94DB0C59CFCA50DF4F888104
:1037E000C65FD040C950DF4F9881C75FD0408ACFB5
:1037F00080E0C253DF4F8883CE5CD040C153DF4F9F
:103800001882CF5CD040C4010E94B906D82E7B013B
:103810008B01672B09F070C181E0C553DF4F8883AE
:10382000CB5CD0401DC0CA50DF4F8881C65FD040FE
:10383000C950DF4F9881C75FD0400E941506DC0158
:103840001596DC92CC51DF4FD882C45ED040F70190
:1038500084818F77848357824682EF2809F078CF5E
:10386000E9ECF0E0EC0FFD1FC851DF4FF983E8836E
:10387000C85ED04021E030E02C0F3D1FC651DF4F25
:1038800039832883CA5ED040C451DF4F1982188221
:10389000CC5ED040C251DF4FF983E883CE5ED0408A
:1038A000BE0168517F4FC3010E94D409883C910535
:1038B00040F4A1E0B0E0AC0FBD1F8A0F9B1FFC01DC
:1038C000108284E791E09093F1038093F00388E6FF
:1038D00091E09093EF038093EE0389E491E090935D
:1038E000ED038093EC0321E030E02C0F3D1F30937B
:1038F000EB032093EA0381E994E19093E903809339
:10390000E8038DED92E19093E6038093E50386E171
:1039100094E19093E4038093E3031092E20380E543
:103920008093E10381E08093E0038091DF038F5F68
:1039300087708093DF038093E703C753DF4F0881CD
:103940001981C95CD040C453DF4F68817981CC5C58
:10395000D0406115710509F461C0DB018D919C9126
:10396000C453DF4F99838883CC5CD040D801ED915C
:10397000FC910280F381E02DC8010995E4CF82819A
:103980008F5F8283D80114968C911497807885601C
:1039900014968C931497ED93FC9362CFBFEFEB16C4
:1039A000F10411F008F038CFC753DF4F88819981B7
:1039B000C95CD040DC01ED91FC910190F081E02DDB
:1039C000B7016B5F7F4F0995FC01892B09F424CF68
:1039D000E38281E08283CF01049696012E0D3F1D84
:1039E000C216D30639F0D6014D916D01DC014D931D
:1039F000CD01F6CFDF01AE0DBF1D14961C92C4534E
:103A0000DF4F88819981CC5CD04091838083C453FF
:103A1000DF4FF983E883CC5CD040B4CFC753DF4F8E
:103A2000E880F980C95CD040D12CC252DF4F688158
:103A30007981CE5DD040C052DF4F8881C05ED040DA
:103A4000D816D8F4B4E0DB9E80011124060F171FAE
:103A5000F801628173816115710541F0D701ED9123
:103A6000FC910280F381E02DC7010995F8011382D2
:103A7000128210821182D394D8CFC052DF4F1882A5
:103A8000C05ED0408FEFCE51DF4F8883C25ED04002
:103A90006815790541F0D701ED91FC910280F38121
:103AA000E02DC7010995CE0180519F4F0E94180D4E
:103AB00080E090E0892B09F41CCD0E94000388234C
:103AC00009F4F9CC0E940000EECC81E0C052DF4F37
:103AD0008883C05ED04060E870E084E391E00E949B
:103AE0009915C053DF4F99838883C05DD040892BDF
:103AF00009F47ECE80E17DCECC51DF4F6881C45E7B
:103B0000D0406F3F09F08FCECD51DF4FD882C35EDA
:103B1000D04098CE81EE94E00C94180DFB01DC01AE
:103B200002C005900D9241505040D8F70895BB2730
:103B30002A3051F4992342F4BDE290958095709516
:103B400061957F4F8F4F9F4F0C94A71DBB27FA01A4
:103B5000A62F6217710581059105330B30FB66F0C6
:103B6000AA27660F771F881F991FAA1FA21710F098
:103B7000A21B63953850A9F7A05DAA3308F0A95D90
:103B8000A19336F7B111B1931082CA010C94C81DEC
:103B9000DC01FC01672F71917723E1F7329704C0B4
:103BA0007C916D9370836291AE17BF07C8F308953F
:103BB0000E941A1E08F481E00895E89409C097FB5A
:103BC0003EF490958095709561957F4F8F4F9F4FF4
:103BD0009923A9F0F92F96E9BB279395F695879538
:103BE00077956795B795F111F8CFFAF4BB0F11F4FB
:103BF00060FF1BC06F5F7F4F8F4F9F4F16C08823A2
:103C000011F096E911C0772321F09EE8872F762FD7
:103C100005C0662371F096E8862F70E060E02AF018
:103C20009A95660F771F881FDAF7880F9695879504
:103C300097F90895990F0008550FAA0BE0E8FEEFD9
:103C400016161706E807F907C0F012161306E40760
:103C5000F50798F0621B730B840B950B39F40A2659
:103C600061F0232B242B252B21F408950A2609F437
:103C7000A140A6958FEF811D811D08950E94511EC0
:103C80000C94C21E0E94B41E38F00E94BB1E20F08D
:103C9000952311F00C94AB1E0C94B11E11240C94BE
:103CA000F61E0E94D31E70F3959FC1F3950F50E04E
:103CB000551F629FF001729FBB27F00DB11D639FDE
:103CC000AA27F00DB11DAA1F649F6627B00DA11D84
:103CD000661F829F2227B00DA11D621F739FB00D2A
:103CE000A11D621F839FA00D611D221F749F33279A
:103CF000A00D611D231F849F600D211D822F762F33
:103D00006A2F11249F5750409AF0F1F088234AF00F
:103D1000EE0FFF1FBB1F661F771F881F915050407B
:103D2000A9F79E3F510580F00C94AB1E0C94F61E33
:103D30005F3FE4F3983ED4F3869577956795B79502
:103D4000F795E7959F5FC1F7FE2B880F911D96951C
:103D5000879597F9089597F99F6780E870E060E08C
:103D600008959FEF80EC089500240A941616170614
:103D700018060906089500240A941216130614065C
:103D800005060895092E0394000C11F4882352F0BF
:103D9000BB0F40F4BF2B11F460FF04C06F5F7F4F77
:103DA0008F4F9F4F089557FD9058440F551F59F05E
:103DB0005F3F71F04795880F97FB991F61F09F3F18
:103DC00079F087950895121613061406551FF2CF41
:103DD0004695F1DF08C0161617061806991FF1CF91
:103DE00086957105610508940895E894BB276627B8
:103DF0007727CB0197F90895F999FECF92BD81BD40
:103E0000F89A992780B50895052E97FB1EF4009423
:103E10000E941B1F57FD07D00E946D1F07FC03D097
:103E20004EF40C941B1F50954095309521953F4FB3
:103E30004F4F5F4F089590958095709561957F4F96
:103E40008F4F9F4F08950E948F1FA59F900DB49F85
:103E5000900DA49F800D911D11240895B7FF0C941F
:103E6000231F0E94231F821B930B08952F923F92C2
:103E70004F925F926F927F928F929F92AF92BF927A
:103E8000CF92DF92EF92FF920F931F93CF93DF9326
:103E9000CDB7DEB7CA1BDB0B0FB6F894DEBF0FBE83
:103EA000CDBF09942A88398848885F846E847D84D0
:103EB0008C849B84AA84B984C884DF80EE80FD80D2
:103EC0000C811B81AA81B981CE0FD11D0FB6F89448
:103ED000DEBF0FBECDBFED010895A1E21A2EAA1BD1
:103EE000BB1BFD010DC0AA1FBB1FEE1FFF1FA217AA
:103EF000B307E407F50720F0A21BB30BE40BF50BA7
:103F0000661F771F881F991F1A9469F7609570952F
:103F1000809590959B01AC01BD01CF010895A29FB2
:103F2000B001B39FC001A39F700D811D1124911D8D
:103F3000B29F700D811D1124911D08955058BB270B
:103F4000AA270E94B61F0C94C21E0E94B41E38F00D
:103F50000E94BB1E20F039F49F3F19F426F40C9404
:103F6000B11E0EF4E095E7FB0C94AB1EE92F0E9406
:103F7000D31E58F3BA17620773078407950720F01A
:103F800079F4A6F50C94F51E0EF4E0950B2EBA2FDD
:103F9000A02D0B01B90190010C01CA01A00111244F
:103FA000FF27591B99F0593F50F4503E68F11A16FB
:103FB000F040A22F232F342F4427585FF3CF46958C
:103FC00037952795A795F0405395C9F77EF41F16AE
:103FD000BA0B620B730B840BBAF09150A1F0FF0F78
:103FE000BB1F661F771F881FC2F70EC0BA0F621F64
:103FF000731F841F48F4879577956795B795F79554
:104000009E3F08F0B0CF9395880F08F09927EE0FE8
:104010009795879508950E94DB1E88F09F5798F02A
:10402000B92F9927B751B0F0E1F0660F771F881FBD
:10403000991F1AF0BA95C9F714C0B13091F00E94D7
:10404000F51EB1E008950C94F51E672F782F882790
:10405000B85F39F0B93FCCF3869577956795B395FE
:10406000D9F73EF490958095709561957F4F8F4F6D
:104070009F4F08950E941A1E08F48FEF0895991B10
:1040800079E004C0991F961708F0961B881F7A954F
:10409000C9F780950895AA1BBB1B51E107C0AA1F51
:1040A000BB1FA617B70710F0A61BB70B881F991FD9
:1040B0005A95A9F780959095BC01CD010895EE0F12
:1040C000FF1F0590F491E02D09940F931F93CF9358
:1040D000DF938230910510F482E090E0E091EC04EF
:1040E000F091ED0430E020E0B0E0A0E0309799F4EA
:1040F0002115310509F44AC0281B390B243031053C
:10410000D8F58A819B816115710589F1FB01938343
:104110008283FE0111C040815181028113814817C1
:104120005907E0F04817590799F4109761F0129673
:104130000C93129713961C933296CF01DF91CF9177
:104140001F910F9108950093EC041093ED04F4CFA8
:104150002115310551F04217530738F0A901DB0151
:104160009A01BD01DF01F801C1CFEF01F9CF9093B2
:10417000ED048093EC04CDCFFE01E20FF31F819399
:1041800091932250310939832883D7CF2091EA04B3
:104190003091EB04232B41F4209138013091390107
:1041A0003093EB042093EA042091360130913701DB
:1041B0002115310541F42DB73EB740913A01509198
:1041C0003B01241B350BE091EA04F091EB04E2176C
:1041D000F307A0F42E1B3F0B2817390778F0AC012A
:1041E0004E5F5F4F2417350748F04E0F5F1F509307
:1041F000EB044093EA04819391939FCFF0E0E0E0D9
:104200009CCFCF93DF930097E9F0FC0132971382A4
:104210001282A091EC04B091ED04ED0130E020E0B9
:104220001097A1F420813181820F931F2091EA041D
:104230003091EB042817390709F061C0F093EB04C3
:10424000E093EA04DF91CF910895EA01CE17DF07EA
:10425000E8F54A815B819E0141155105B1F7E901FD
:10426000FB83EA8349915991C40FD51FEC17FD07D1
:1042700061F4808191810296840F951FE9019983F1
:104280008883828193819B838A83F0E0E0E01296A9
:104290008D919C9113970097B9F52D913C911197B1
:1042A000CD010296820F931F2091EA043091EB0416
:1042B0002817390739F6309751F51092ED0410920E
:1042C000EC04B093EB04A093EA04BCCFD383C28385
:1042D00040815181840F951FC817D90761F44E5F43
:1042E0005F4F88819981480F591F518340838A818C
:1042F0009B81938382832115310509F0B0CFF09320
:10430000ED04E093EC049ECFFD01DC01C0CF1382ED
:104310001282D7CFB0E0A0E0E0E9F1E20C94381FC0
:104320008C01009751F4CB010E9465208C01C801DB
:10433000CDB7DEB7E0E10C94541FFC01E60FF71F88
:104340009C0122503109E217F30708F49DC0D901FE
:10435000CD91DC911197C617D70798F0C530D105DC
:1043600030F3CE0104978617970708F3C61BD70BC7
:104370002297C193D1936D937C93CF010E94012129
:10438000D6CF5B01AC1ABD0A4C018C0E9D1EA091CC
:10439000EC04B091ED04512C412CF12CE12C109740
:1043A00031F58091EA049091EB048815990509F0A4
:1043B0005CC04616570608F058C0809136019091AF
:1043C0003701009741F48DB79EB740913A01509163
:1043D0003B01841B950BE817F90708F055C0F093D3
:1043E000EB04E093EA04F90171836083A0CF8D911F
:1043F0009C91119712966C90129713967C9013973C
:10440000A815B90559F56C0142E0C40ED11CCA14B7
:10441000DB0420F1AC014A195B09DA011296159709
:1044200080F06282738251834083D9016D937C93C3
:10443000E114F10471F0D7011396FC93EE931297F7
:1044400076CF22968C0F9D1FF90191838083F30113
:10445000EFCFF093ED04E093EC0469CF48165906D2
:1044600008F42C017D01D3019ACFCB010E94652075
:104470007C01009749F0AE01B8010E945422C801A6
:104480000E940121870153CF10E000E050CFFB01D3
:10449000DC0104C08D910190801921F441505040FD
:1044A000C8F7881B990B0895FB01DC0102C001903D
:1044B0000D9241505040D8F70895FB01DC018D91D9
:1044C000019080190110D9F3990B0895FB01DC01CB
:1044D00001900D920020E1F70895FB01DC014150AD
:1044E000504030F08D910190801919F40020B9F7F7
:1044F000881B990B089510E0C8EED0E004C0FE01BF
:104500000E945F202196C93ED107C9F7F894FFCFDA
:1045100041726475696E6F2D454E4332386A36308C
:104520002D303000000000000000000000000000FE
:104530000A01C0A80201C0A80201C0A80202746951
:10454000692D303140010000EE04800000000000C1
:104550009915200DD70C00000000200464023004DF
:104560006302FFFFFFFFFFFF00000000360364024D
:1045700091028303F402A002E60200000000C108D9
:104580006402300463020D0A002F2F22225C5C6259
:1045900008660C6E0A720D7409005C75303030309C
:1045A000006E756C6C00747275650066616C736585
:1045B00000323030003C3C3C207265706C79200049
:1045C000206D73004163636573732044656E696594
:1045D000642100416363657373204772616E746583
:1045E00064000A5B67657453746174696349505D64
:1045F000004661696C656420746F20616363657354
:10460000732045746865726E657420636F6E747292
:104610006F6C6C6572005365727665723A20004764
:1046200061746577617920666F756E64000A3E3E3D
:104630003E205245510057616974696E6720666F6C
:1046400072007265717565737400496E70757420BF
:1046500066726F6D205669727475616C2054657254
:104660006D696E616C3A2000757365726E616D657F
:02467000000048
:00000001FF
