:100000000C94E9000C9411010C9411010C94110151
:100010000C9411010C9411010C9411010C94110118
:100020000C9411010C9411010C9411010C944D16B7
:100030000C9411010C9411010C9411010C941101F8
:100040000C94AB150C9411010C941B160C94F51523
:100050000C9411010C9411010C9411010C941101D8
:100060000C9411010C941101CDCCCC3D0AD7233C4A
:1000700017B7D13877CC2B329595E6241FB14F0AAC
:10008000000020410000C84200401C4620BCBE4C7D
:10009000CA1B0E5AAEC59D746382536300010800EB
:1000A0000604000100504F53542024462048545465
:1000B000502F312E300D0A486F73743A2024460DAC
:1000C0000A244624534163636570743A202A2F2A18
:1000D0000D0A436F6E74656E742D4C656E6774689F
:1000E0003A2024440D0A436F6E74656E742D547962
:1000F00070653A206170706C69636174696F6E2F0E
:10010000782D7777772D666F726D2D75726C656EB1
:10011000636F6465640D0A0D0A245300474554203B
:100120002446245320485454502F312E300D0A4871
:100130006F73743A2024460D0A24460D0A0D0A00F6
:10014000450000820000400020436F6E74656E74AD
:100150002D547970653A206170706C6963617469BF
:100160006F6E2F6A736F6E003139322E3136382E32
:10017000322E31002F7365727669636500000000CE
:1001800000240027002A0000000000250028002B82
:100190000004040404040404040202020202020330
:1001A000030303030301020408102040800102043A
:1001B00008102001020408102000000008000201BD
:1001C00000000304070000000000000000005817B2
:1001D000761D11241FBECFEFD8E0DEBFCDBF12E0E9
:1001E000A0E0B1E0E8EEF4E402C005900D92AE3577
:1001F000B107D9F724E0AEE5B2E001C01D92AA3EF6
:10020000B207E1F710E0C8EED0E004C02197FE018C
:100210000E944B20C73ED107C9F70E94F3170C94E8
:1002200067220C9400008F929F92AF92BF92FF9230
:100230000F931F93CF93DF93F090E3042BE02F15E0
:1002400008F44CC02091E50408E512E0021B1109F6
:1002500027FD1395000F111F000F111F2091E404BB
:10026000C8E8D0E0C21BD10927FDD395CC0FDD1F14
:10027000CC0FDD1F4E010D2E000CAA08BB08980103
:10028000012E000C440B550B281939094A095B094A
:10029000DC010E941A1F24EB30E040E050E00E9495
:1002A000F01E820E931EA41EB51E8C169D062CF009
:1002B000E801801691060CF4E4012297CC0FDD1FB3
:1002C0002FB7F8948F2D90E0FC01EE0FFF1FE80F81
:1002D000F91FE056FB4FD283C1832FBFDF91CF912F
:1002E0001F910F91FF90BF90AF909F908F900895B6
:1002F000CF93DF932091FF032223C1F0FC012081E3
:100300002223A1F0CFEFD3E0ABEFB3E09C012C5F51
:100310003F4F899141919D918427892339F4E217B8
:10032000F307B9F781E0DF91CF91089580E0FBCF2B
:10033000CF93DF93EC01FB018A30910548F06AE02E
:1003400070E00E943720CB01BF010E949801FC01A0
:10035000CE016AE070E00E943720805D80831182C8
:10036000CF010196DF91CF91089590E0FC01E75411
:10037000FE4F2491FC01EB55FE4F3491FC01EF56EA
:10038000FE4FE491EE23C9F0222339F0233001F12E
:10039000A8F4213019F1223029F1F0E0EE0FFF1F0F
:1003A000E957FE4FA591B4918FB7F894EC91611184
:1003B00026C030953E233C938FBF08952730A9F087
:1003C0002830C9F0243049F7809180008F7D03C028
:1003D000809180008F7780938000DFCF84B58F7706
:1003E00084BDDBCF84B58F7DFBCF8091B0008F774C
:1003F0008093B000D2CF8091B0008F7DF9CF3E2B9B
:10040000DACFCF93DF9390E0FC01EB55FE4F2491C0
:100410008F569E4FFC0184918823D1F090E0880F85
:10042000991FFC01E358FE4FA591B491FC01E957D7
:10043000FE4FC591D49161110EC09FB7F8948C9175
:10044000E22FE0958E238C932881E223E8839FBFDF
:10045000DF91CF9108958FB7F894EC91E22BEC9354
:100460008FBFF6CF3FB7F8948091F7039091F803D0
:10047000A091F903B091FA0326B5A89B05C02F3FC0
:1004800019F00196A11DB11D3FBFBA2FA92F982FBA
:100490008827BC01CD01620F711D811D911D42E0B5
:1004A000660F771F881F991F4A95D1F708952FB7B8
:1004B000F8946091F3037091F4038091F5039091A7
:1004C000F6032FBF08950895AF92BF92CF92DF92A7
:1004D000EF92FF920F931F93CF93DF936C017B01F9
:1004E0008B01040F151FEB015E01AE18BF08C0178A
:1004F000D10759F06991D601ED91FC910190F081FD
:10050000E02DC6010995892B79F7C501DF91CF91BF
:100510001F910F91FF90EF90DF90CF90BF90AF9021
:100520000895FC01538D448D252F30E0842F90E0F9
:10053000821B930B541710F0CF96089501970895DE
:10054000FC01918D828D981761F0A28DAE0FBF2FA7
:10055000B11D5D968C91928D9F5F9F73928F90E0FD
:1005600008958FEF9FEF08950F931F930E945702F6
:1005700060930B0470930C0480930D0490930E040D
:1005800083E094E00E94A00297FF1DC00E945702E2
:1005900000910B0410910C0420910D0430910E0475
:1005A000601B710B820B930B0091070410910804E0
:1005B0002091090430910A0460177107820793079C
:1005C000F8F28FEF9FEF1F910F910895FC01918D2D
:1005D000828D981731F0828DE80FF11D858D90E0A6
:1005E00008958FEF9FEF0895FC01918D228D892F43
:1005F00090E0805C9F4F821B91098F73992708952B
:1006000083E094E00E94F40221E0892B09F420E0C9
:10061000822F089580E090E0892B29F00E9400034A
:1006200081110C9400000895FC01A48DA80FB92F2E
:10063000B11DA35ABF4F2C91848D90E001968F730A
:100640009927848FA689B7892C93A089B1898C9129
:10065000837080648C93938D848D981306C0028878
:10066000F389E02D80818F7D80830895EF92FF9242
:100670000F931F93CF93DF93EC0181E0888F9B8DC5
:100680008C8D98131AC0E889F989808185FF15C07F
:100690009FB7F894EE89FF896083E889F9898081A2
:1006A0008370806480839FBF81E090E0DF91CF9171
:1006B0001F910F91FF90EF900895F62E0B8D10E093
:1006C0000F5F1F4F0F731127E02E8C8D8E110CC002
:1006D0000FB607FCFACFE889F989808185FFF5CF4D
:1006E000CE010E941403F1CFEB8DEC0FFD2FF11D15
:1006F000E35AFF4FF0829FB7F8940B8FEA89FB898A
:1007000080818062CFCFCF93DF93EC01888D8823E7
:10071000B9F0AA89BB89E889F9898C9185FD03C064
:10072000808186FD0DC00FB607FCF7CF8C9185FF49
:10073000F2CF808185FFEDCFCE010E941403E9CF77
:10074000DF91CF910895809196029091970298271A
:100750008927982744972091B40230E044E03595EA
:1007600027954A95E1F7220F331F220F331F821B73
:10077000930B97FF02C090E080E008950F931F93C2
:10078000CF93DF9370E06A577D4F8A01075F1F4F59
:10079000213029F0223031F48A010250110930E071
:1007A00020E003C000E010E09801EB01FA01E23024
:1007B000F10558F0A991B991BA27AB27BA270A0FCA
:1007C0001B1F211D311D3297F2CFFA01EE7F6E0FF4
:1007D0007F1F4E175F0769F0FB01408150E070E01A
:1007E00060E0762F652F542F4427040F151F261F16
:1007F000371FA90166277727411551056105710546
:1008000019F022273327F1CF00951095E82FF0E05B
:10081000EA57FD4F10830183DF91CF911F910F9114
:100820000895E6E8F2E0108E118E80E4848B158A3C
:10083000868B20E044E150E06EE088E10C94BE033A
:10084000DC011696ED91FC9117979F012F5F3F4FAA
:1008500017963C932E931697608381E090E008955D
:1008600090E080E008958EBD0DB407FEFDCF0895A1
:1008700061E08091B7030E94B50178940895F894DF
:1008800060E08091B7030C94B5010F931F93CF9351
:10089000DF93EC018B010E943F042097B9F08AE3BB
:1008A0000E9433041EBCF801CE01019739F00DB44B
:1008B00007FEFDCF2EB51EBC2193F7CF2197C00FA9
:1008C000D11F0DB407FEFDCF8EB58883DF91CF9188
:1008D0001F910F910C9438041F93CF93DF93182F1F
:1008E000C62FD42F0E943F048C2F8F71812B0E9422
:1008F00033048D2F0E943304DF91CF911F910C940C
:100900003804CF93C82FC076809160028C1799F07D
:1009100043E06FE180EA0E946C04C09360024C2FB8
:1009200050E085E0559547958A95E1F76FE180E8BD
:10093000CF910C946C04CF910895CF93DF93C82F7F
:10094000D62F0E9481044D2F6C2F80E4DF91CF9130
:100950000C946C04CF93DF93C82FD72F0E949D0473
:100960006D2F81E08C0FDF91CF910C949D04CF937C
:10097000C82F0E9481040E943F048C2F8F710E9417
:10098000330480E00E943304C7FF03C080E00E946C
:100990003304CEB50E9438048C2FCF9108950F9365
:1009A0001F93CF93DF9300D000D000D0CDB7DEB738
:1009B00080916302882379F06091610270916202F4
:1009C0006115710509F053C06FEF7BE08CE00E9468
:1009D000AA041092630289E30E94B70410E000E0C9
:1009E0008823C9F1609161027091620280E00E94E7
:1009F000AA04BE016F5F7F4F86E090E00E9445042D
:100A000089819A8190936202809361028D819E8197
:100A10008C010078112787FF12C08B819C8104977D
:100A20000091B8031091B903015011098017910783
:100A300008F48C0166E872E0C8010E944504F801E0
:100A4000EA57FD4F108281E08093630240E46EE13B
:100A500080E80E946C04C80126960FB6F894DEBFA9
:100A60000FBECDBFDF91CF911F910F9108956150BF
:100A70007109ACCFCF93DF93EC0140E86FE180E8E0
:100A80000E946C0440E86FE180EA0E946C044AE036
:100A90006CE180EA0E946C0460E07CE082E00E94ED
:100AA000AA04BE01745F86E00E94AA0440E060E0F0
:100AB0008AE70E946C040E943F042097B1F08AE705
:100AC0000E943304809186028EBDE7E8F2E0CA57A7
:100AD000DD4FEC17FD0731F081910DB407FEFDCF1E
:100AE0008EBDF7CF0DB407FEFDCF0E94380448E05D
:100AF0006FE180E80E946C04D0E0C0E08CE10E94CD
:100B0000B7048A7029F42196C83E83E0D807B1F76C
:100B10008CE10E94B70481FD03C0C83ED34039F484
:100B200048E06FE180EADF91CF910C946C04DF9193
:100B3000CF910895CF93DF93EB01682F84ED0E944E
:100B40009D04BE0186ED0E94AA048AEE0E94B704AD
:100B500080FDFBCFDF91CF910895CF92DF92EF928E
:100B6000FF920F931F938634910568F12091A9029B
:100B7000233449F5C090B402D090B502E090B6029B
:100B8000F090B7020091690210916A0220916B0205
:100B900030916C02C016D106E206F306A1F4E0EA39
:100BA000F3E08A579D4F9F012E5F3F4F4181508157
:100BB000553319F45281651771F0F901E40FF11DF5
:100BC000E817F90780F380E01F910F91FF90EF90F5
:100BD000DF90CF90089581E0F7CFE0915E02F09131
:100BE0005F029F012F5F3F4F30935F0220935E02B1
:100BF00080830895FF920F931F93CF93DF93162F57
:100C0000F42E052F0E94ED05812F0E94ED05CF2DBA
:100C1000D02F115020F089910E94ED05FACFDF917D
:100C2000CF911F910F91FF9008956F3FB1F0E62F84
:100C3000E295EF7044E0E49F90011124DC01ED9116
:100C4000FC91E20FF31F6F70B8E06B9FC00111249D
:100C500062817381860F971F089590E080E0089568
:100C6000FC01A281B3818081918130E020E0A8174E
:100C7000B90738F4CD010196938382836C9321E008
:100C800030E084819581820F931F9583848308953A
:100C9000CF93DF93FC0182819381EB01460F571FB5
:100CA000A281B38120813181A217B30758F4C41700
:100CB000D50741F02991BD016F5F7F4F7383628338
:100CC0002C93EECFA81BB90B84819581A80FB91F77
:100CD000B583A483DF91CF9108958F929F92AF92B5
:100CE000BF92CF92DF92EF92FF920F931F93CF9319
:100CF000DF93CDB7DEB766970FB6F894DEBF0FBEB1
:100D0000CDBF6C018E01095E1F4F78018AE0882EED
:100D1000912CA12CB12CCB01BA01A50194010E9408
:100D2000591F942F852F605DF80162938F01A901EF
:100D3000692F782F411551056105710561F7A701EC
:100D40004E1B5F0BBF01C6010E94480666960FB698
:100D5000F894DEBF0FBECDBFDF91CF911F910F91F1
:100D6000FF90EF90DF90CF90BF90AF909F908F90CB
:100D70000895FC019289915084E0989F900111247C
:100D8000A089B189A20FB31F1296ED91FC91139720
:100D90003097E9F011962C9111978C912817B8F49F
:100DA00081E0820F11968C9388E0289FA001112486
:100DB000E40FF51F309759F014828FEF8583178267
:100DC0001682BF01892F8295807F820F089560E08F
:100DD00070E08FEF0895CF93DF93EC01A881B98184
:100DE000F0E0E0E0109741F1CD0104966817790733
:100DF000F1F412969C911297915012969C9312972F
:100E000091111AC08D919C911197309769F091833F
:100E10008083EA01E881F9810280F381E02DBD0140
:100E2000CA01DF91CF91099499838883F2CFFD01A4
:100E30000D90BC91A02DD6CFDF91CF9108958F92C8
:100E40009F92AF92BF92CF92DF92EF92FF920F9359
:100E50001F93CF93DF938C01EB01FC01848180FF12
:100E60000AC048815981608171816C5F7F4FCE01DA
:100E700003960E94EB06F8018481807681F10115CA
:100E8000110569F1D0805E01F5E1AF0EB11C4E0194
:100E900083E0880E911CEFEFDE16F1F06D2DC50199
:100EA0000E9415067C01FC01C580848187FF07C074
:100EB0004881598166817781C4010E94EB06BE0199
:100EC000C7010E941F07F701848180788483898D80
:100ED0008583D98EDC2CDFCFF801D082D182DF91DF
:100EE000CF911F910F91FF90EF90DF90CF90BF9027
:100EF000AF909F908F900895CF93DF93EC0160E0C7
:100F00008E810E94B50161E08E810E94B50160E092
:100F10008E810E94B5018BE891E00197F1F7DF9196
:100F2000CF910895CF92DF92EF92FF920F931F938C
:100F3000CF93DF936C017C0187E0E80EF11CD0E0D9
:100F4000C0E0062F10E0B8010C2E02C07595679521
:100F50000A94E2F76170F70181917F010E94B50167
:100F60002196C430D10579F7C601DF91CF911F9149
:100F70000F91FF90EF90DF90CF900C947C07CF9271
:100F8000DF92EF92FF920F931F93CF93DF93EC01C9
:100F9000F62E642F8C810E94B5018D818F3F19F050
:100FA00060E00E94B5010F2D10E08F8584FF25C001
:100FB0006E0187E0C80ED11CF12CE12CB8010E2C7B
:100FC00002C0759567950A94E2F76170F601819108
:100FD0006F010E94B501FFEFEF1AFF0A88E0E816E3
:100FE000F10461F7CE01DF91CF911F910F91FF9036
:100FF000EF90DF90CF900C947C07B80184E075955A
:1010000067958A95E1F7CE010E9492076F2DCE0178
:10101000DF91CF911F910F91FF90EF90DF90CF90D4
:101020000C94920740E061E085EC94E00E94BF07D9
:101030008BE39FE10197F1F70895CF93DF9382301F
:1010400029F49091D40498609093D4048093D804A8
:101050001092D90480E48093DA0480E18093DB0469
:1010600080E58093DC0461E08091C9040E94010264
:101070008091CA048F3F19F061E00E94010261E093
:101080008091CB040E940102C5ECD4E09E01255C56
:1010900034408091D40484FD0BC084E090E021961C
:1010A0002817390744F461E08E810E940102EECFD7
:1010B00088E090E0F4CF8BE39DE00197F1F760E0EA
:1010C0008091C9040E94B50160E08091CB040E9428
:1010D000B5018091CA048F3F19F060E00E94B5010C
:1010E0006091D40464FD3DC063E085EC94E00E940F
:1010F0009207CBE4D6E4CE010197F1F763E085ECEB
:1011000094E00E9492072197F1F763E085EC94E068
:101110000E94920783E592E00197F1F762E085EC87
:1011200094E00E9492076091D404606240E085ECF4
:1011300094E00E94BF0784E08093D50440E06CE017
:1011400085EC94E00E94BF070E94120882E0809321
:10115000D60440E066E085EC94E0DF91CF910C94FA
:10116000BF07606240E085EC94E00E94BF078BE41B
:1011700096E40197F1F76091D404606240E085EC59
:1011800094E00E94BF0783E592E00197F1F7609138
:10119000D404606240E085EC94E00E94BF07C3CFB6
:1011A00041E00E94BF0781E090E00895DC0196E0F5
:1011B000FB0101900D929A95E1F70895BC0186E834
:1011C00092E00E94D60861EC73E08CE892E00C9407
:1011D000D608DC0194E0FB0101900D929A95E1F7AD
:1011E00008958CE892E00E94DE0860EA72E084EAEA
:1011F00092E00E94E9086FEF73E080EA92E00E94BB
:10120000E9080C941104CF93DF93EB010E94DE08F0
:10121000BE0184EA92E00E94E9086FEF73E080EA81
:1012200092E0DF91CF910C94E908FB01019000203E
:10123000E9F73197AF01461B570BDC01ED91FC91AB
:101240000280F381E02D0994CF93DF93FC01448168
:1012500055816081718183E094E00E946402EC0119
:1012600066E771E083E094E00E9415098C0F9D1FF2
:10127000DF91CF9108958F929F92AF92BF920F937B
:101280001F93CF93DF93CDB7DEB7A1970FB6F89436
:10129000DEBF0FBECDBF19A2423008F44AE08E0176
:1012A0000F5D1F4F842E912CB12CA12CA501940110
:1012B0000E94591FE62FB901CA01EA3004F5E05D2A
:1012C000D801EE938D01232B242B252B79F790E069
:1012D00080E0109729F0BD0183E094E00E94150999
:1012E000A1960FB6F894DEBF0FBECDBFDF91CF91B0
:1012F0001F910F91BF90AF909F908F900895E95CE0
:10130000DFCFCF93DF93BC0183E094E00E94150907
:10131000EC0166E771E083E094E00E9415098C0F10
:101320009D1FDF91CF910895FB0101900020E9F707
:101330003197AF01461B570B0C9448061F93CF9370
:10134000DF93E9E7F1E01281112379F032962181F0
:101350006213F9CFEC016CE50E943006612FCE01DB
:10136000DF91CF911F910C9430066111F9CF6AE89B
:1013700071E0DF91CF911F910C949409CF92DF928D
:10138000EF92FF920F931F93CF93DF938C016B012A
:101390007A0162E20E943006E601EC0CFD1CCE15DB
:1013A000DF0529F06991C8010E949E09F8CF62E229
:1013B000C801DF91CF911F910F91FF90EF90DF90C7
:1013C000CF900C9430062F923F924F925F926F9283
:1013D0007F928F929F92AF92BF92CF92DF92EF92C5
:1013E000FF920F931F93CF93DF93CDB7DEB76C9728
:1013F0000FB6F894DEBF0FBECDBF8C011B01DC0120
:1014000014968C9114978F77883009F4B2C2E8F45F
:10141000843009F469C248F4833009F49FC261E959
:1014200071E0C1010E9494091CC2853009F470C2A8
:101430008630A9F78C9166E971E0811102C06BE9F1
:1014400071E0C1010E9494096DC28C30F1F1C8F4C1
:101450008A3029F7CD90DD90ED90FC90B701A60180
:10146000F7FE0BC06DE2C1010E94300644275527EC
:10147000BA014C195D096E097F09C1010E946D0610
:1014800051C2803209F4F7C1803449F66BE5C101DD
:101490000E943006F80110811F3F09F4E7C1D10115
:1014A00016968D919C91612F45960E9415068C0190
:1014B000B1010E94E309F80115811F3F09F4D6C16B
:1014C0006CE2C1010E943006E7CFF801C080D180F4
:1014D000E280F380A7019601C701B6010E94C41DF6
:1014E00081119DCF20E030E0A901C701B6010E9423
:1014F000C41D882379F0A7019601C701B6010E9497
:101500008B1F9B01AC01C701B6010E94C41D88233B
:1015100009F485CF20E030E0A901C701B6010E949F
:10152000C41D87FF08C06DE2C1010E943006F7FAB2
:10153000F094F7F8F09420E836E948E15BE4C7015D
:10154000B6010E94262087FD88C074E1A72EB12C29
:1015500000E210E0188E1F8AF501E058FF4F259138
:10156000359145915491C701B6010E94262087FD0F
:1015700013C0F501E859FF4F2591359145915491DC
:10158000C701B6010E942A1E6B017C012F89388D8C
:10159000200F311F388F2F8B1595079534E0A31A34
:1015A000B1088CEFA8168FEFB806B1F655245A94FF
:1015B00020E030E0A901C701B6010E9426201816DC
:1015C0000CF052C02CEA35EC47E257E3C701B601F4
:1015D0000E94C41D18160CF447C0A52DB4E0AB0240
:1015E000C0011124B12CA12CFC01E859FF4F3F018F
:1015F0009C0120583F4F49013FEF531609F434C076
:10160000F301EA0DFB1D659175918591949120E0A0
:1016100030E040E251E40E942A1EA70196010E9498
:10162000262018169CF4F401EA0DFB1D2591359136
:1016300045915491C701B6010E942A1E6B017C019D
:101640008F89988D801B910B988F8F8B159507959F
:101650005A9494E0A91AB108CFCF00E210E055E007
:10166000552E188E1F8AA4CFC701B6010E94F71FFE
:101670004B015C012B013C0106E080E492E4AFE009
:10168000B0E0898F9A8FAB8FBC8F102F01509AE0FA
:101690004916510461047104C8F0698D7A8D8B8DEF
:1016A0009C8D2AE030E040E050E00E94591F298FD5
:1016B0003A8F4B8F5C8FC301B2012AE030E040E0EB
:1016C00050E00E94591F29013A01DFCFC501B40142
:1016D0000E94C91D9B01AC01C701B6010E948A1F6F
:1016E0006B017C01698D7A8D8B8D9C8D0E94C91D4B
:1016F0009B01AC01C701B6010E942A1E2B013C01CF
:101700000E94F71F6B017C010E94C91D9B01AC0167
:10171000C301B2010E948A1F9B01AC010E948B1F72
:101720000E94F71FC60ED71EE81EF91E898D9A8DDE
:10173000AB8DBC8DC816D906EA06FB06D8F09FEF24
:10174000891A990AA90AB90AAF89B88DAB2B39F160
:10175000BAE08B169104A104B10408F1EF89F88D69
:101760003196F88FEF8BC12CD12C7601812C912CE6
:10177000540183942AE0422E512C612C712CC70114
:10178000B601A30192010E94591F672B682B692B98
:1017900051F4111644F469017A011150F0CFC12CB3
:1017A000D12C7601E7CFB501A401C1010E946D06DD
:1017B000112371F14E01F1E18F0E911C012F5401A3
:1017C0009AE0492E512C612C712C015068F0C70110
:1017D000B601A30192010E94591F605DD4016E936E
:1017E0004D0169017A01F1CF812F90E0BC01609534
:1017F0007095F501E81BF90B31978EE28083442741
:101800005527461B570B6A0D7B1DC1010E944806D8
:10181000EF89F88DEF2B29F165E6C1010E943006B2
:101820000F89188D17FF07C06DE2C1010E943006B5
:10183000119501951109FE0177969F018AE0E82E26
:10184000F12CC801B7010E943720805D82938B0183
:10185000672BB9F7A9014E1B5F0BBF01C1010E94A5
:101860004806D10114968D919C915FC06DE5C10130
:101870000E943006F6CF6BE7C1010E943006F801E6
:1018800010811F3F79F1D10116968D919C91612FA6
:1018900045960E9415068C01FC01C680D78062E245
:1018A000C1010E9430067601D7016D917D0166234A
:1018B00021F0C1010E949E09F7CF62E2C1010E949E
:1018C00030066AE3C1010E943006B101C8010E94DE
:1018D000E309F80115811F3F29F06CE2C1010E9464
:1018E0003006CFCF6DE7C3CFF8016081718150E042
:1018F00040E06115710541F0FB0101900020E9F71E
:101900003197AF01461B570BC1010E94BE09A9CFF9
:10191000ED91FC91438150E0BF016C5F7F4FC101AD
:101920000E94BE09F101848195816C960FB6F894EE
:10193000DEBF0FBECDBFDF91CF911F910F91FF9002
:10194000EF90DF90CF90BF90AF909F908F907F905F
:101950006F905F904F903F902F900895ED91FC9184
:10196000438150E0BF016C5F7F4FC1010E94480678
:10197000D9CF4D915D916D917C917FCD0F931F9348
:10198000CF93DF93EC0188819981009759F02A81E8
:101990003B812617370730F081E0DF91CF911F910F
:1019A0000F9108958B016F5F7F4F0E947621009702
:1019B00059F0998388831B830A832C813D81232BD3
:1019C00059F7FC011082E8CF80E0E7CFCB01BA01E4
:1019D0000C947621CF93DF93EC0188819981009755
:1019E00011F00E94ED20198218821D821C821B8238
:1019F0001A82DF91CF910895EF92FF920F931F9378
:101A0000CF93DF93EC017B018A01BA010E94BE0CE7
:101A100081110BC0CE010E94EA0CCE01DF91CF9163
:101A20001F910F91FF90EF9008951D830C83B701D4
:101A3000888199810E945222F0CFFB010190002001
:101A4000E9F73197AF01461B570B0C94FC0CFC01D6
:101A500080819181009711F00C94ED200895CB01C5
:101A60000C94ED20CF93DF93EB0144E050E0BC01F8
:101A700082EA92E00E943322892B49F46CE972E0F9
:101A8000CE010E94D60881E0DF91CF91089580E0D9
:101A9000FBCF0F931F93CF938C0182E591E00E94BF
:101AA000DE08E6E8F2E088E08487C6E0C58748E023
:101AB00050E06CE970E084E992E00E947A1DE6EA69
:101AC000F2E0DF011D92CA95E9F761EC73E08CE961
:101AD00092E00E94D608B8018CEA92E00E94E908E0
:101AE0006FEF73E082EA92E00E94E9088AE290E0F8
:101AF000CF911F910F910C943A05EF92FF920F93A3
:101B00001F93CF93DF938C01E6E8F2E086E191E04A
:101B1000DF019C011D9221503040E1F78091790254
:101B2000C2E5D1E0833011F4C4E6D2E0CE010E94D8
:101B30007801BE01882309F4ACC08AE792E00E94D4
:101B400003098881807F803E91F088819981AA81F4
:101B5000BB818F3F9F4FAF4FBF4F49F044E050E0F4
:101B6000BE0187EC93E00E943322892B31F462E5B9
:101B700071E086E892E00E94D60888E080939202A5
:101B80001092930249E050E060E471E084E992E051
:101B90000E947A1D1092960281E180939D0210921C
:101BA000AA0283E48093AB021092A80284E480939B
:101BB000A9021092AC021092AE021092AF0262E53E
:101BC00071E086E892E00E94D60881E08093B0023E
:101BD0008093B10286E08093B20280916902909175
:101BE0006A02A0916B02B0916C028093B402909350
:101BF000B502A093B602B093B702C0917902C33088
:101C000031F46FEF73E08CEB92E00E94E90861EC35
:101C100073E08CEC92E00E94D6088CE993E09093FC
:101C20005F0280935E02E8E9F0E084910E94ED0596
:101C3000E9E9F0E084910E94ED05EAE9F0E08491A1
:101C40000E94ED05EBE9F0E084910E94ED0585E34B
:101C50000E94ED0581E00E94ED0583E0C11101C005
:101C600081E00E94ED058DE30E94ED0587E00E9472
:101C7000ED0581E00E94ED0581ECE82E83E0F82E71
:101C8000C7E0C15049F0D7018D917D010E94ED055B
:101C9000F8CF80E892E053CF80910001882371F063
:101CA00060E071E0FB0101900020E9F7BF016150A5
:101CB000714040E051E08CE00E94FA0501151105E9
:101CC00059F0A80164E082E30E94FA0544E652E07C
:101CD00064E086E30E94FA0587E30E94ED0583E055
:101CE0000E94ED0581E00E94ED0583E00E94ED0574
:101CF00086E00E94ED058FEF0E94ED05C0915E0227
:101D0000D0915F02C05BD240CE014C969093960278
:101D1000809397020E941104CE0108969093AC0222
:101D20008093AD02AE01405F5F4F21E06AE188E23F
:101D30000E94BE03CE018A96DF91CF911F910F9131
:101D4000FF90EF900C943A058F929F92AF92BF92C2
:101D5000CF92DF92EF92FF920F931F93CF93DF9377
:101D600000D000D0CDB7DEB77C018091D5038823A9
:101D700069F080917902823009F4F1C008F0E9C07D
:101D8000882309F474C1813009F490C1E114F1048D
:101D900009F02BC28091D603857029F18091CF0381
:101DA0009091D003892BF9F461E184ED0E949D04A8
:101DB00061E082ED0E949D048AEE0E94B70480FDDE
:101DC000FBCF60E082ED0E949D0489ED0E94B70484
:101DD00082FF09C08BEC93E00E94490D8091D603ED
:101DE00088608093D6038091CF039091D0030196B1
:101DF0009093D0038093CF038091DC03813009F06E
:101E000079C08091D60381FF75C082E08093DC03A6
:101E1000809121018F5F80932101F090DD03E0909C
:101E2000DE031091DB03A0E21A9F900111248F7151
:101E3000182F122B87ED93E00E94780167ED73E075
:101E4000882309F4BFC18AE792E00E94030908E0F1
:101E5000009392021092930249E050E060E471E036
:101E600084E992E00E947A1D8CE28093970286E0DA
:101E700080939D020E941104E092AA02F092AB02AC
:101E80008BE08093A8021093A902ECEAF2E0DF0154
:101E90001D920A95E9F7809120018093AE028D5F33
:101EA0008093200180E68093B40282E08093B502A3
:101EB00093E09093B6021092B7021092B80210927B
:101EC000B9021092BA021092BB028093BC0294E055
:101ED0009093BD028093BE0286E28093BF0222E00F
:101EE00040E250E06AE182E30E94BE038AE390E0B0
:101EF0000E943A0581ED93E00E947801882379F0F1
:101F00008091B50381110BC08091B403811107C08A
:101F100081ED93E00E94490D81E08093B40387ED49
:101F200093E00E947801811150C110E000E0C801E7
:101F30000F900F900F900F90DF91CF911F910F9105
:101F4000FF90EF90DF90CF90BF90AF909F908F90D9
:101F50000895833009F456C0843009F017CF65E046
:101F6000C7010E94AD05882309F4C9C080916802A9
:101F7000811108C088E30E94B704682F6E7F88E350
:101F80000E949D0460EC72E08FEF93E00E94E908EC
:101F9000E0EAF3E0C7018A579D4F6C018F010E5FA5
:101FA0001F4FB1808081863009F4FBC008F0BEC0AD
:101FB000813009F4ECC0833009F4EFC0F801EB0D77
:101FC000F11DEC15FD0550F30E945702609371025C
:101FD0007093720280937302909374028091CB038A
:101FE000882361F01092D0031092CF0381E0809398
:101FF000D6036BEC73E0CB010E94E90883E0809389
:102000007902C4CE8090750290907602A0907702FB
:10201000B09078022FEF82169206A206B20609F45B
:10202000B5CE0E9457020091710210917202209168
:10203000730230917402601B710B820B930B681555
:1020400079058A059B0508F4A1CE8FEF93E00E94E5
:102050007D0D84E0809379020E94570260936D02A7
:1020600070936E0280936F02909370028FCE0E94E5
:1020700057026093690270936A0280936B02909397
:102080006C02EFEFF3E084E0DF011D928A95E9F73F
:1020900090E080E00E947D0D88E30E94B704682FE5
:1020A000616088E30E949D0481E0D4CF62E0C701B3
:1020B0000E94AD05882319F160EC72E0CE01019613
:1020C0000E94E908E0EAF3E0C7018A579D4FBF018B
:1020D0006E5F7F4F21813081363351F484E692E088
:1020E0000E94E908CE0101960E947D0D82E0B2CFE8
:1020F000FB01E20FF11DE817F90748F3F3CF0E9447
:10210000570200916D0210916E0220916F02309182
:102110007002601B710B820B930B6131774281055A
:10212000910508F433CE1092790230CE8A3331F023
:102130008F3F09F449CF833309F040CF10927502E5
:10214000109276021092770210927802F801C8017C
:10215000049620E030E0A9016191542F432F322FE3
:102160002227260F311D411D511D8E179F07A1F7F4
:102170002F3F9FEF390749075907B9F4209375029C
:1021800030937602409377025093780217CFB801CC
:102190008BEF93E00E94E90811CFB8018BEC93E03C
:1021A000F9CFB80181ED93E0F5CFA8EEB3E00E943E
:1021B0000F1F60937502709376028093770290935D
:1021C0007802FCCE80E892E040CE8091B30381118A
:1021D000ACCE8091B2038111A8CE87ED93E00E942E
:1021E000490D81E08093B203A0CEB9E2EB16F10471
:1021F00008F49BCE80919202883009F096CE8091AF
:102200009302863009F09FC144E050E06FEF73E025
:102210008CEA92E00E943322892B09F086CE8091CD
:102220009B02813029F58CE892E00E94DE08109232
:102230009A0282E080939B026CE972E086EA92E067
:102240000E94D60861EC73E08CE992E00E94D60807
:1022500062EA72E08CEA92E00E94E9086FEF73E0B4
:1022600082EA92E00E94E9088AE290E00E943A0540
:102270008091D60383FF0DC010919B02123049F468
:1022800060E872E08BEC93E00E94320D81111093B4
:10229000D6038091B503811111C08091B4038823C6
:1022A00069F06AE772E081ED93E00E94320D8823C5
:1022B00029F081E08093B5031092B4038091B303B9
:1022C000811133CE8091B203882309F42ECE6AE7C0
:1022D00072E087ED93E00E94320D882309F425CE49
:1022E00081E08093B3031092B2031FCE26E3E2167F
:1022F000F10408F41ACE863009F017CE8091AA02B4
:102300008B3009F0BAC044E050E067ED73E080EA3A
:1023100092E00E943322892B09F007CED090B502BB
:10232000D2FE15C0E091E103F091E203309759F03D
:102330008091AB0230E020E050E040E063E0829525
:1023400086958770099585E08093DC03EECD0E9429
:10235000A3038C018091DC03823009F045C09D2DE0
:1023600090718D2D8271823189F560E090E080E07E
:102370000E94341788E18093B502E091DF03F09169
:10238000E00310E000E0309739F08091A9028295D7
:102390008695877009958C0183E08093DC03C801E2
:1023A000889690939602809397020E94110410924F
:1023B000B8021092B902A801445E5F4F22E06AE1C0
:1023C00082E30E94BE03C801C69603C181E08093E8
:1023D000DC03911106C0C801019664E00E94341725
:1023E000A4CD90E080E0F9CF8330A1F5011511056F
:1023F000A1F1E091E103F091E203309771F1809156
:10240000B40290E024E0959587952A95E1F7880F2E
:10241000991F880F991F8296A70148505109841768
:10242000950708F4AC01C801840F951F9701241B80
:10243000350BE816F90608F098018091AB0260E0D0
:10244000829586958770099569E0C8010E943417C6
:1024500086E07ACF853009F468CDD0FE07C083309E
:1024600009F463CD69E0C8010196F0CF01151105AB
:1024700009F45BCD60E0C801B1CF811156CD8091E8
:10248000AB02803509F051CDD090B502D1FE39C0F4
:10249000109296028CE2809397020E94F10882E1EA
:1024A0008093B50260E081E090E00E9409171092ED
:1024B000AC021092AD02809120018093AE02109286
:1024C000AF028D5F8093200182E08093BC0284E0A4
:1024D0008093BD0285E08093BE021092BF0290E619
:1024E0009093B4028093B60288E78093B70222E00B
:1024F00040E250E06AE182E30E94BE038AE390E09A
:1025000068C0D4FE12CD0E94A3038C01892B99F0E0
:102510000091B40210E084E0159507958A95E1F7E3
:10252000000F111F000F111F0E5D1F4FE016F10667
:1025300008F0FDCCFACCD0FEF8CC60E090E080E072
:102540000E943417F4CC99E2E916F10409F4EDCCB9
:102550008111EBCC80919402853409F0E6CC44E003
:1025600050E06FEF73E084EA92E00E943322892BFF
:10257000A9F044E050E067EC73E084EA92E00E9446
:102580003322892B59F044E050E062E571E084EA9F
:1025900092E00E943322892B09F0C7CC80919D02E2
:1025A000813009F0A3CE8091A802883009F0BDCC1B
:1025B0000E94F1081092A8028091AA02883F28F098
:1025C0009091AB029F5F9093AB02885F8093AA02C9
:1025D000C7010E943A05A9CC0F931F93CF93DF93B5
:1025E00089019091E303981781F0E091E403F09161
:1025F000E50350E040E070E060E084E0099580E0B1
:10260000DF91CF911F910F9108956111F8CF2D3077
:102610003105A8F3C091E403D091E503209779F345
:10262000BA0161577D4F43E050E081EA91E00E949A
:1026300059226091B40270E024E0759567952A955F
:10264000E1F7660F771F660F771F6E5D7F4F21E002
:10265000892B09F420E0A801822FFE01CFCFAF9291
:10266000BF92CF92DF92EF92FF920F931F93CF937F
:10267000DF93CDB7DEB7ED84FE84CF84D8888E019A
:102680000F5E1F4FC6010196F6012491222309F423
:10269000D1C0243279F0D7011696ED91FC911797AD
:1026A000AF014F5F5F4F17965C934E931697208351
:1026B0006C01E8CFB2E0CB0ED11CFC0184918634D2
:1026C00009F481C0A0F4843409F44CC0853409F4C1
:1026D00094C0D7011696ED91FC9117979F012F5F3B
:1026E0003F4F17963C932E9316978083CBCFD701FD
:1026F00016964D915C918C3409F44DC0833509F4E4
:1027000057C0883431F7B8016E5F7F4FF801908170
:10271000292F092E000C330B84E0359527958A95D7
:10272000E1F72F709F709A300CF0995F905D2A301E
:102730000CF0295FFA013196D7011796FC93EE93BE
:102740001697205DFA0120831696ED91FC9117975C
:102750009F012F5F3F4F17963C932E9316979083C0
:102760008B0190CF5801B2E0AB0EB11CF70166812E
:102770007781D8018D919C910E949801F701868103
:102780009781DC010D900020E9F7CD010197978337
:102790008683850177CF5801F4E0AF0EB11CD801D4
:1027A0006D917D918D919C912AE00E94831DE6CFD1
:1027B0005801B2E0AB0EB11CF80160817181CA0111
:1027C0000E945222DBCFF8010190F081E02D0E5FD4
:1027D0001F4F84913196882309F454CFD701169660
:1027E0004D915C9117979A012F5F3F4F17963C933D
:1027F0002E931697DA018C93ECCFF80180819181AA
:102800000E5F1F4F5C01BFEFAB1ABB0A0E94E81EB0
:10281000882309F437CFD7011696ED91FC911797CD
:102820009F012F5F3F4F17963C932E9316978083FF
:10283000C501E8CFDF91CF911F910F91FF90EF90ED
:10284000DF90CF90BF90AF9008950F931F93CF93D9
:10285000DF93CDB7DEB728970FB6F894DEBF0FBE73
:10286000CDBF1C821B822AE431E03A8329832CEB02
:1028700032E03E832D8338872F839091E3039813B2
:102880002AC0A091E603B091E7031091EA030091FA
:10289000EB036091EC037091ED038091E80390915C
:1028A000E903AE014F5F5F4F109731F59F938F9310
:1028B0000F931F931F921F927F936F938CE191E070
:1028C0009F938F935F934F930E942F130FB6F894AB
:1028D000DEBF0FBECDBF8F8198852D813E81821BCB
:1028E000930B28960FB6F894DEBF0FBECDBFDF91D5
:1028F000CF911F910F910895FD0101900020E9F7FC
:102900003197EA1BFB0B26E731E0009721F429E819
:1029100031E084EA90E0BF93AF93FF93EF933F934E
:102920002F939F938F930F931F937F936F9385EABA
:1029300090E09F938F935F934F930E942F13C6CF86
:10294000CF92DF92EF92FF920F931F93CF93DF937B
:10295000CDB7DEB72C970FB6F894DEBF0FBECDBF54
:102960008B0165EA71E083E094E00E9415090E9402
:102970005702C090EE03D090EF03E090F003F09088
:10298000F1036C197D098E099F094AE00E943B09F9
:1029900080EB91E00E948109B8016A577D4F18864B
:1029A0001F821A8619861C861B866115710521F007
:1029B000CE0107960E941D0DEB84FC8467018EE01A
:1029C000C81AD108EC14FD0428F09E2D8F2D760135
:1029D000C92ED82E1A8219821C821B821E821D8249
:1029E00069E871E0CE0101960E941D0D0B851C85E2
:1029F000E016F10620F5C016D10608F48601EF8135
:102A0000F885E00FF11FD08010826F8178856E0D00
:102A10007F1D6115710509F461C0FB010190002063
:102A2000E9F73197AF01461B570BCE0101960E9483
:102A3000FC0C8F819885080F191FF801D0828F81B7
:102A40009885009709F451C069817A8161157105F3
:102A500009F449C049855A852D813E8142175307A3
:102A600008F441C00E9452228D819E819C878B87F1
:102A70001E821D82CE0101960E94270D8B859C85AA
:102A8000892BC9F00F81188564EB71E0C8010E94A1
:102A90004922892BD9F584EB91E00E9481090E949B
:102AA000120864EB71E085EC94E00E94150990E057
:102AB00080E00E941301CE0107960E94270D2C96FC
:102AC0000FB6F894DEBF0FBECDBFDF91CF911F913F
:102AD0000F91FF90EF90DF90CF900895CE01019677
:102AE0000E94EA0CA6CF0E94ED2089819A819887E6
:102AF0008F838B819C819A8789878D819E819C871A
:102B00008B871A8219821C821B82B2CF63EC71E020
:102B1000C8010E944922892B71F661E089E00E9478
:102B2000B5018AE590E00E9413018DED94E00E94CA
:102B300024090E9412084091E1045091E20460913E
:102B4000DD047091DE0485EC94E00E946402B3CF52
:102B5000CB010C9451201F920F920FB60F921124AB
:102B60002F933F938F939F93AF93BF938091F303E2
:102B70009091F403A091F503B091F6033091F20324
:102B800023E0230F2D3758F50196A11DB11D209389
:102B9000F2038093F3039093F403A093F503B093AF
:102BA000F6038091F7039091F803A091F903B09197
:102BB000FA030196A11DB11D8093F7039093F803CA
:102BC000A093F903B093FA03BF91AF919F918F91B6
:102BD0003F912F910F900FBE0F901F90189526E8F0
:102BE000230F0296A11DB11DD2CF1F920F920FB6D7
:102BF0000F9211242F933F934F935F936F937F9383
:102C00008F939F93AF93BF93EF93FF9383E094E0F1
:102C10000E941403FF91EF91BF91AF919F918F910B
:102C20007F916F915F914F913F912F910F900FBEC8
:102C30000F901F9018951F920F920FB60F921124AC
:102C40002F938F939F93EF93FF93E0911304F09151
:102C500014048081E0911904F0911A0482FD1BC0D4
:102C6000908180911C048F5F8F7320911D048217C7
:102C700041F0E0911C04F0E0ED5FFB4F958F8093F5
:102C80001C04FF91EF919F918F912F910F900FBE98
:102C90000F901F9018958081F4CF1F920F920FB65E
:102CA0000F9211242F933F934F935F936F937F93D2
:102CB0008F939F93AF93BF93CF93DF93EF93FF9344
:102CC0008091B603C091C404D0E087FF24C0109265
:102CD0008500109284008091B6038F5F8093B603C5
:102CE0008091B603082E000C990B8C179D0724F4D5
:102CF0008091B6038C30C4F180918400909185005E
:102D0000049680349C4908F47AC0809184009091A4
:102D10008500049676C08091B603082E000C990BAE
:102D20008C179D07C4F6E091B6038E2FEE0F990B1A
:102D3000FC01EE0FFF1FE80FF91FE056FB4F8081EB
:102D400086FFC9CFE091B6038E2FEE0F990BFC01E1
:102D5000EE0FFF1FE80FF91FE056FB4F808160E088
:102D60008F730E94B501B7CF209184003091850008
:102D7000E091B6038E2FEE0F990BFC01EE0FFF1FB3
:102D8000E80FF91FE056FB4F81819281820F931F5C
:102D90009093890080938800E091B6038E2FEE0F08
:102DA000990BFC01EE0FFF1FE80FF91FE056FB4FD8
:102DB000808186FF11C0E091B6038E2FEE0F990B34
:102DC000FC01EE0FFF1FE80FF91FE056FB4F80815B
:102DD00061E08F730E94B501FF91EF91DF91CF9178
:102DE000BF91AF919F918F917F916F915F914F9123
:102DF0003F912F910F900FBE0F901F90189580E478
:102E00009CE990938900809388008FEF8093B603AC
:102E1000E3CF2091AA023091A8023093AA02209316
:102E2000A8022091AB023091A9023093AB0220930B
:102E3000A902E6E8F2E021A5820F911D25A585A74C
:102E4000662381F021A7892F9927319722E0E23864
:102E5000F20789F71092B8021092B90280E58093C8
:102E6000B402089511A6EFCF262F20612093B5025A
:102E7000643021F0009711F481E090E061E00E945D
:102E800009171092960288E2809397020E94F10837
:102E900084E08093B6021092B70222E04CE150E049
:102EA0006AE182E30E94BE0386E390E00C943A0557
:102EB000109206041092050488EE93E0A0E0B0E0C2
:102EC0008093070490930804A0930904B0930A0424
:102ED0008CE591E0909304048093030485EC90E0EA
:102EE0009093100480930F0484EC90E0909312046C
:102EF0008093110480EC90E0909314048093130469
:102F000081EC90E0909316048093150482EC90E09D
:102F1000909318048093170486EC90E090931A0421
:102F20008093190410921C0410921D0410921E0428
:102F300010921F048091C4048C3008F050C091E0BE
:102F4000980F9093C4048093E30490E0FC01EE0F8B
:102F5000FF1FE80FF91FE056FB4F88EB9BE09283C1
:102F600081831092DE041092DD041092E00410922E
:102F7000DF041092E2041092E10469E871E08DED43
:102F800094E00E941D0D1092C8041092C7048EE6B2
:102F900091E09093C6048093C50487E08093C904B0
:102FA0008FEF8093CA0488E08093CB0486E08093FF
:102FB000CC0485E08093CD0484E08093CE0483E04C
:102FC0008093CF041092D0041092D1041092D204B6
:102FD0001092D3041092D40481E00C941D088FEF5A
:102FE0008093E304BECFCF93DF93CDB7DEB7C75F47
:102FF000D1090FB6F894DEBF0FBECDBF789484B56B
:10300000826084BD84B5816084BD85B5826085BDE4
:1030100085B5816085BD80916E00816080936E0072
:103020001092810080918100826080938100809164
:103030008100816080938100809180008160809315
:1030400080008091B10084608093B1008091B000D5
:1030500081608093B00080917A00846080937A00D0
:1030600080917A00826080937A0080917A008160FA
:1030700080937A0080917A00806880937A00109221
:10308000C10061E089E00E9401028091E3048C307C
:1030900008F051C061E082E00E9401028091E304E7
:1030A000282F30E0F901EE0FFF1FE20FF31FE0566B
:1030B000FB4F9081907C926090831092E404109278
:1030C000E5042CE0622F0E942B20829FB001112486
:1030D00030E020E0AB01420F531FFA01EE0FFF1F5B
:1030E000E40FF51FE056FB4F908196FD16C02F5F51
:1030F0003F4F2C30310571F781110FC010928000C5
:1031000082E0809381001092850010928400B19A31
:1031100080916F00826080936F00E091E3048E2FB6
:1031200090E0FC01EE0FFF1FE80FF91FE056FB4F88
:1031300080818064808390E080E00E94130182E0BF
:103140000E941D08E0911304F091140482E0808332
:10315000E0910F04F09110041082E0911104F091BD
:1031600012048FEC808310921B04E0911704F091FD
:10317000180486E08083E0911504F09116048081A4
:1031800080618083E0911504F0911604808188604D
:103190008083E0911504F09116048081806880831B
:1031A000E0911504F091160480818F7D808382ED7B
:1031B00091E00E9481091092D50387E390E0C12C31
:1031C000D12C7601C3940097C1F0FC01A3E0F595E2
:1031D000E795AA95E1F7E654FC4F282F2770B70131
:1031E000A60104C0440F551F661F771F2A95D2F70A
:1031F0002081242B20830197E6CF6EE271E081ECE1
:1032000093E00E94D6088CE291E09093B9038093FA
:10321000B8030CB406FC25C061E08AE00E940102FC
:1032200061E08AE00E94B50161E08BE00E9401024A
:1032300061E08DE00E94010260E08CE00E940102EA
:1032400061E08BE00E94B50160E08BE00E94B50177
:1032500060E08DE00E94B50180E58CBD8DB5816098
:103260008DBD8AE08093B70361E00E9401020E9455
:1032700038044FEF60E08FEF0E946C040E9432022E
:103280006B017C0172E0872E912CA12CB12C0E9445
:1032900032026C197D098E099F09683E73408105D1
:1032A0009105A8F328EEC20E23E0D21EE11CF11C0A
:1032B0008A9489288A288B2829F0812C912C540102
:1032C0008394E5CF0E943F048DE10E94330480E0A7
:1032D0000E9433041EB50E943804112399F370E054
:1032E00060E088E00E94AA0470E060E08CE00E9448
:1032F000AA046FEF7BE08AE00E94AA0460E07CE011
:1033000084E00E94AA046FEF71E186E00E94AA04A3
:1033100066E774E084E10E949A0561EB88E30E940D
:103320009D046FE370E388E20E94AA0469EF77EFDF
:1033300080E30E94AA0461E080EC0E949D0442E3C5
:1033400062EC80E80E946C0462E17CE086EC0E9402
:10335000AA0462E184EC0E949D046CED75E08AECA5
:103360000E94AA046091C10384EE0E949D046091B2
:10337000C20385EE0E949D046091C30382EE0E9409
:103380009D046091C40383EE0E949D046091C50377
:1033900080EE0E949D046091C60381EE0E949D0410
:1033A00060E071E080E10E949A058FE10E94810453
:1033B00040EC6BE180E80E946C0444E06FE180E83F
:1033C0000E946C0482E70E94B704863008F08F5F89
:1033D000811104C081EE91E00E9481091092D50311
:1033E0006AE271E08FEF93E00E94E9081092D00347
:1033F0001092CF0381E08093D60366E271E08BECFC
:1034000093E00E94E908EFEFF3E02BEF33E047ECA5
:1034100053E09191D9018D919D018095892BDA011D
:103420008D93AD01B4E0E330FB0799F762E271E000
:1034300087ED93E00E94E90866E072E083E094E0A3
:103440000E94150957EDE52E53E0F52E10E0F70127
:1034500061917F0170E090E080E04AE00E943B09CA
:10346000133029F06EE283E094E00E9436031F5F80
:10347000143069F766E771E083E094E00E94150973
:103480008091D60381FD05C00E94CF040E94A40E46
:10349000F7CF8FE092E00E94810988E79CEEAFEFC2
:1034A000BFEF8093EE039093EF03A093F003B093EC
:1034B000F10349EC842E912C8C0E9D1EF5E08F0EAD
:1034C000911C39EC232E312C2C0E3D1E25E0220EB2
:1034D000311C89ECA82EB12CAC0EBD1E35E1A30E1B
:1034E000B11C94E5492E92E0592ECA50DF4FA882B4
:1034F000C65FD040C950DF4FB882C75FD04029ECCB
:10350000622E712C6C0E7D1E8AE1680E711C0E9469
:10351000CF040E94A40E0E945702AB01BC0180910F
:10352000EE039091EF03A091F003B091F10388575F
:103530009C4EAF4FBF4F84179507A607B70708F0FB
:10354000A3C20E9457026093EE037093EF0380932F
:10355000F0039093F1038DE192E00E9481090E94B3
:10356000120866E272E085EC94E00E94150960E0C2
:1035700089E00E94B50190E080E00E94130183E0A1
:1035800094E00E94F402181619060CF07DC2C05196
:10359000DF4F19821882C05FD040CE50DF4F1982B2
:1035A0001882C25FD040CC50DF4F19821882C45FAE
:1035B000D04069E871E0CE0180519F4F0E941D0DFF
:1035C0000E94B40297FD2FC08D30910561F189836F
:1035D0001A82CC50DF4F08811981C45FD0400F5F41
:1035E0001F4FB801CE0180519F4F0E94BE0C88230F
:1035F00039F3C051DF4F28813981C05FD040CC50B2
:10360000DF4F88819981C45FD040BE016F5F7F4FDB
:10361000820F931F0E945222CC50DF4F19830883E0
:10362000C45FD040CDCF66E372E083E094E00E94B7
:103630001509CE0180519F4F0E942409C051DF4FD0
:1036400068817981C05FD0406115710509F4ACC013
:10365000CC50DF4F48815981C45FD0408DED94E05C
:103660000E94FC0CA4E3B1E0C753DF4FB983A883E9
:10367000C95CD040C553DF4F1882CB5CD040C453E7
:10368000DF4F19821882CC5CD040C252DF4F3982A2
:103690002882CE5DD040C052DF4F1882C05ED0403D
:1036A00084E0CF51DF4F8883C15ED0408FEFCE5191
:1036B000DF4F8883C25ED04090E2C951DF4F9883CC
:1036C000C75ED040CD51DF4F8883C35ED040CC5120
:1036D000DF4F8883C45ED0406FEFC5010E9415069E
:1036E0008C01009709F4DDC1FC016581892B09F487
:1036F000D8C10680F781E02D309709F45AC0DF0168
:103700000D900020E9F7CD0109978E179F0709F06A
:1037100050C0A4E5B2E0CF0108963D91219132134B
:1037200048C08E179F07C9F7CC50DF4FE880F9805B
:10373000C45FD040C051DF4FC880D980C05FD04047
:10374000BE0167537F4FC8010E941F07D80114961E
:103750008C911497807814968C93C114D10409F439
:103760006BC0C453DF4FE881F981CC5CD040970136
:103770002C0D3D1D309709F4FDC083818E151F046B
:1037800079F4B601CF0104962617370709F4E3C090
:10379000DB015D91BD01DC014D91CD015417A1F319
:1037A0000190F081E02DE6CF8DED94E00E94EA0CCF
:1037B00059CFCA50DF4F8881C65FD040C950DF4F14
:1037C0009881C75FD0408ACF80E0C253DF4F8883A3
:1037D000CE5CD040C153DF4F1882CF5CD040C401D3
:1037E0000E94B906D82E7B018B01672B09F070C1AE
:1037F00081E0C553DF4F8883CB5CD0401DC0CA50E9
:10380000DF4F8881C65FD040C950DF4F9881C75FC6
:10381000D0400E941506DC011596DC92CC51DF4F9A
:10382000D882C45ED040F70184818F778483578229
:103830004682EF2809F078CFE9ECF0E0EC0FFD1FAD
:10384000C851DF4FF983E883C85ED04021E030E003
:103850002C0F3D1FC651DF4F39832883CA5ED040ED
:10386000C451DF4F19821882CC5ED040C251DF4F65
:10387000F983E883CE5ED040BE0168517F4FC3011B
:103880000E94E309883C910540F4A1E0B0E0AC0F50
:10389000BD1F8A0F9B1FFC01108284E791E090936B
:1038A000ED038093EC0388E691E09093EB03809323
:1038B000EA0389E491E09093E9038093E80321E02F
:1038C00030E02C0F3D1F3093E7032093E60380EA9E
:1038D00094E19093E5038093E4038CEE92E190935E
:1038E000E2038093E10385E294E19093E003809307
:1038F000DF031092DE0380E58093DD0381E0809397
:10390000DC038091DB038F5F87708093DB03809300
:10391000E303C753DF4F08811981C95CD040C4530A
:10392000DF4F68817981CC5CD0406115710509F465
:1039300061C0DB018D919C91C453DF4F99838883D3
:10394000CC5CD040D801ED91FC910280F381E02D58
:10395000C8010995E4CF82818F5F8283D8011496D4
:103960008C9114978078856014968C931497ED93BE
:10397000FC9362CFBFEFEB16F10411F008F038CFE3
:10398000C753DF4F88819981C95CD040DC01ED913C
:10399000FC910190F081E02DB7016B5F7F4F09959D
:1039A000FC01892B09F424CFE38281E08283CF01DB
:1039B000049696012E0D3F1DC216D30639F0D6018E
:1039C0004D916D01DC014D93CD01F6CFDF01AE0DC0
:1039D000BF1D14961C92C453DF4F88819981CC5C23
:1039E000D04091838083C453DF4FF983E883CC5C5C
:1039F000D040B4CFC753DF4FE880F980C95CD040D6
:103A0000D12CC252DF4F68817981CE5DD040C05247
:103A1000DF4F8881C05ED040D816D8F4B4E0DB9E7A
:103A200080011124060F171FF8016281738161154F
:103A3000710541F0D701ED91FC910280F381E02DF9
:103A4000C7010995F8011382128210821182D39462
:103A5000D8CFC052DF4F1882C05ED0408FEFCE511A
:103A6000DF4F8883C25ED0406815790541F0D701E9
:103A7000ED91FC910280F381E02DC7010995CE0103
:103A800080519F4F0E94270D80E090E0892B09F420
:103A90003ECD0E940003882309F41BCD0E94000044
:103AA00010CD81E0C052DF4F8883C05ED04060E817
:103AB00070E084E391E00E94A815C053DF4F998322
:103AC0008883C05DD040892B09F47ECE80E17DCE15
:103AD000CC51DF4F6881C45ED0406F3F09F08FCE7C
:103AE000CD51DF4FD882C35ED04098CE8DED94E0AB
:103AF0000C94270DFB01DC0102C005900D92415092
:103B00005040D8F70895BB272A3051F4992342F446
:103B1000BDE290958095709561957F4F8F4F9F4F37
:103B20000C94931DBB27FA01A62F6217710581051E
:103B30009105330B30FB66F0AA27660F771F881FAD
:103B4000991FAA1FA21710F0A21B63953850A9F75E
:103B5000A05DAA3308F0A95DA19336F7B111B19326
:103B60001082CA010C94B41DDC01FC01672F719115
:103B70007723E1F7329704C07C916D937083629153
:103B8000AE17BF07C8F308950E94061E08F481E02F
:103B90000895E89409C097FB3EF490958095709540
:103BA00061957F4F8F4F9F4F9923A9F0F92F96E989
:103BB000BB279395F695879577956795B795F111FE
:103BC000F8CFFAF4BB0F11F460FF1BC06F5F7F4F9B
:103BD0008F4F9F4F16C0882311F096E911C07723AD
:103BE00021F09EE8872F762F05C0662371F096E8B6
:103BF000862F70E060E02AF09A95660F771F881F85
:103C0000DAF7880F9695879597F90895990F000828
:103C1000550FAA0BE0E8FEEF16161706E807F9079E
:103C2000C0F012161306E407F50798F0621B730B39
:103C3000840B950B39F40A2661F0232B242B252BBA
:103C400021F408950A2609F4A140A6958FEF811D5D
:103C5000811D08950E943D1E0C94AE1E0E94A01E60
:103C600038F00E94A71E20F0952311F00C94971EA7
:103C70000C949D1E11240C94E21E0E94BF1E70F332
:103C8000959FC1F3950F50E0551F629FF001729F01
:103C9000BB27F00DB11D639FAA27F00DB11DAA1F10
:103CA000649F6627B00DA11D661F829F2227B00D5D
:103CB000A11D621F739FB00DA11D621F839FA00DE8
:103CC000611D221F749F3327A00D611D231F849F38
:103CD000600D211D822F762F6A2F11249F5750408F
:103CE0009AF0F1F088234AF0EE0FFF1FBB1F661F0A
:103CF000771F881F91505040A9F79E3F510580F0D3
:103D00000C94971E0C94E21E5F3FE4F3983ED4F3AC
:103D1000869577956795B795F795E7959F5FC1F776
:103D2000FE2B880F911D9695879597F9089597F921
:103D30009F6780E870E060E008959FEF80EC089551
:103D400000240A941616170618060906089500247A
:103D50000A9412161306140605060895092E0394F4
:103D6000000C11F4882352F0BB0F40F4BF2B11F468
:103D700060FF04C06F5F7F4F8F4F9F4F089557FDC7
:103D80009058440F551F59F05F3F71F04795880FC9
:103D900097FB991F61F09F3F79F087950895121660
:103DA00013061406551FF2CF4695F1DF08C016160C
:103DB00017061806991FF1CF8695710561050894BD
:103DC0000895E894BB2766277727CB0197F90895D4
:103DD000F999FECF92BD81BDF89A992780B50895D3
:103DE000052E97FB1EF400940E94071F57FD07D075
:103DF0000E94591F07FC03D04EF40C94071F5095E6
:103E00004095309521953F4F4F4F5F4F08959095C6
:103E10008095709561957F4F8F4F9F4F08950E94B9
:103E20007B1FA59F900DB49F900DA49F800D911DA9
:103E300011240895B7FF0C940F1F0E940F1F821BBF
:103E4000930B08952F923F924F925F926F927F92C1
:103E50008F929F92AF92BF92CF92DF92EF92FF929A
:103E60000F931F93CF93DF93CDB7DEB7CA1BDB0B46
:103E70000FB6F894DEBF0FBECDBF09942A883988EB
:103E800048885F846E847D848C849B84AA84B984F2
:103E9000C884DF80EE80FD800C811B81AA81B981FE
:103EA000CE0FD11D0FB6F894DEBF0FBECDBFED0112
:103EB0000895A1E21A2EAA1BBB1BFD010DC0AA1F6B
:103EC000BB1FEE1FFF1FA217B307E407F50720F083
:103ED000A21BB30BE40BF50B661F771F881F991FFE
:103EE0001A9469F760957095809590959B01AC0147
:103EF000BD01CF010895A29FB001B39FC001A39F50
:103F0000700D811D1124911DB29F700D811D112412
:103F1000911D08955058BB27AA270E94A21F0C94F8
:103F2000AE1E0E94A01E38F00E94A71E20F039F499
:103F30009F3F19F426F40C949D1E0EF4E095E7FBC8
:103F40000C94971EE92F0E94BF1E58F3BA17620700
:103F500073078407950720F079F4A6F50C94E11E09
:103F60000EF4E0950B2EBA2FA02D0B01B901900194
:103F70000C01CA01A0011124FF27591B99F0593FD8
:103F800050F4503E68F11A16F040A22F232F342F20
:103F90004427585FF3CF469537952795A795F0406E
:103FA0005395C9F77EF41F16BA0B620B730B840B83
:103FB000BAF09150A1F0FF0FBB1F661F771F881F3B
:103FC000C2F70EC0BA0F621F731F841F48F4879593
:103FD00077956795B795F7959E3F08F0B0CF939585
:103FE000880F08F09927EE0F9795879508950E94FE
:103FF000C71E88F09F5798F0B92F9927B751B0F096
:10400000E1F0660F771F881F991F1AF0BA95C9F75C
:1040100014C0B13091F00E94E11EB1E008950C94FB
:10402000E11E672F782F8827B85F39F0B93FCCF3AE
:10403000869577956795B395D9F73EF490958095D9
:10404000709561957F4F8F4F9F4F08950E94061E78
:1040500008F48FEF0895991B79E004C0991F961713
:1040600008F0961B881F7A95C9F780950895AA1BBA
:10407000BB1B51E107C0AA1FBB1FA617B70710F053
:10408000A61BB70B881F991F5A95A9F78095909585
:10409000BC01CD010895EE0FFF1F0590F491E02DB6
:1040A00009940F931F93CF93DF938230910510F4FF
:1040B00082E090E0E091E804F091E90430E020E053
:1040C000B0E0A0E0309799F42115310509F44AC019
:1040D000281B390B24303105D8F58A819B81611565
:1040E000710589F1FB0193838283FE0111C0408138
:1040F00051810281138148175907E0F04817590789
:1041000099F4109761F012960C93129713961C93E2
:104110003296CF01DF91CF911F910F9108950093B7
:10412000E8041093E904F4CF2115310551F042174A
:10413000530738F0A901DB019A01BD01DF01F80145
:10414000C1CFEF01F9CF9093E9048093E804CDCF7C
:10415000FE01E20FF31F81939193225031093983BD
:104160002883D7CF2091E6043091E704232B41F434
:1041700020913801309139013093E7042093E6040F
:1041800020913601309137012115310541F42DB7C9
:104190003EB740913A0150913B01241B350BE09111
:1041A000E604F091E704E217F307A0F42E1B3F0B9F
:1041B0002817390778F0AC014E5F5F4F2417350799
:1041C00048F04E0F5F1F5093E7044093E60481933D
:1041D00091939FCFF0E0E0E09CCFCF93DF930097E7
:1041E000E9F0FC01329713821282A091E804B091A9
:1041F000E904ED0130E020E01097A1F42081318145
:10420000820F931F2091E6043091E70428173907A5
:1042100009F061C0F093E704E093E604DF91CF91E9
:104220000895EA01CE17DF07E8F54A815B819E0118
:1042300041155105B1F7E901FB83EA834991599191
:10424000C40FD51FEC17FD0761F4808191810296A0
:10425000840F951FE90199838883828193819B83D1
:104260008A83F0E0E0E012968D919C91139700977D
:10427000B9F52D913C911197CD010296820F931FB4
:104280002091E6043091E7042817390739F6309772
:1042900051F51092E9041092E804B093E704A0935A
:1042A000E604BCCFD383C28340815181840F951F24
:1042B000C817D90761F44E5F5F4F88819981480F15
:1042C000591F518340838A819B8193838283211567
:1042D000310509F0B0CFF093E904E093E8049ECFF4
:1042E000FD01DC01C0CF13821282D7CFB0E0A0E085
:1042F000ECE7F1E20C94241F8C01009751F4CB0100
:104300000E9451208C01C801CDB7DEB7E0E10C94CA
:10431000401FFC01E60FF71F9C0122503109E217F4
:10432000F30708F49DC0D901CD91DC911197C61710
:10433000D70798F0C530D10530F3CE010497861722
:10434000970708F3C61BD70B2297C193D1936D93A0
:104350007C93CF010E94ED20D6CF5B01AC1ABD0A41
:104360004C018C0E9D1EA091E804B091E904512CE3
:10437000412CF12CE12C109731F58091E6049091BD
:10438000E7048815990509F05CC04616570608F041
:1043900058C08091360190913701009741F48DB754
:1043A0009EB740913A0150913B01841B950BE81751
:1043B000F90708F055C0F093E704E093E604F9012B
:1043C00071836083A0CF8D919C91119712966C9010
:1043D000129713967C901397A815B90559F56C019F
:1043E00042E0C40ED11CCA14DB0420F1AC014A190E
:1043F0005B09DA011296159780F06282738251830D
:104400004083D9016D937C93E114F10471F0D701DD
:104410001396FC93EE93129776CF22968C0F9D1FE6
:10442000F90191838083F301EFCFF093E904E093E6
:10443000E80469CF4816590608F42C017D01D30120
:104440009ACFCB010E9451207C01009749F0AE0128
:10445000B8010E944022C8010E94ED20870153CF7D
:1044600010E000E050CFFB01DC0104C08D91019011
:10447000801921F441505040C8F7881B990B0895CA
:10448000FB01DC0102C001900D9241505040D8F771
:104490000895FB01DC018D91019080190110D9F381
:1044A000990B0895FB01DC0101900D920020E1F7CA
:1044B0000895FB01DC014150504030F08D91019096
:1044C000801919F40020B9F7881B990B089510E0A2
:1044D000C8EED0E004C0FE010E944B202196C93EE8
:0844E000D107C9F7F894FFCFE2
:1044E80041726475696E6F2D454E4332386A3630B5
:1044F8002D30300000000000000000000000000027
:104508000A01C0A80201C0A80201C0A80202746979
:10451800692D303140010000EA04800000000000ED
:10452800A8152F0DE60C00000000200464023004DA
:104538006302FFFFFFFFFFFF000000003603640275
:1045480091028303F402A002E60200000000D008F2
:104558006402300463020D0A002F2F22225C5C6281
:1045680008660C6E0A720D7409005C7530303030C4
:10457800006E756C6C00747275650066616C7365AD
:1045880000323030003C3C3C207265706C79200071
:10459800206D73004163636573732044656E6965BC
:1045A800642100416363657373204772616E7465AB
:1045B80064000A5B67657453746174696349505D8C
:1045C800004661696C656420746F2061636365737C
:1045D800732045746865726E657420636F6E7472BB
:1045E8006F6C6C6572005365727665723A2000478D
:1045F80061746577617920666F756E64000A3E3E66
:104608003E205245510057616974696E6720666F94
:10461800722052657100496E7075742066726F6DF4
:10462800205669727475616C205465726D696E618B
:0E4638006C3A2000757365726E616D6500004E
:00000001FF
