:020000040000FA
:100000000C945E000C9486000C9486000C94860080
:100010000C9486000C9486000C9486000C94860048
:100020000C9486000C9486000C9486000C94760A3E
:100030000C9486000C9486000C9486000C94860028
:100040000C94D4090C9486000C94440A0C941E0A57
:100050000C9486000C9486000C9486000C94860008
:100060000C9486000C948600000000080002010039
:100070000003040700000000000000000000000072
:10008000250028002B0000000000240027002A0083
:10009000040404040404040402020202020203032E
:1000A0000303030301020408102040800102040836
:1000B0001020010204081020320B600E11241FBE14
:1000C000CFEFD8E0DEBFCDBF11E0A0E0B1E0EEE3BE
:1000D000F4E202C005900D92A23EB107D9F723E0E9
:1000E000A2EEB1E001C01D92A934B207E1F710E021
:1000F000CDE5D0E004C02197FE010E940A10CC3566
:10010000D107C9F70E946D0C0C9412120C940000D8
:100110008F929F92AF92BF92FF920F931F93CF93B4
:10012000DF93F09036032BE02F1508F44CC020919C
:10013000380308E512E0021B110927FD1395000F93
:10014000111F000F111F20913703C8E8D0E0C21B18
:10015000D10927FDD395CC0FDD1FCC0FDD1F4E013C
:100160000D2E000CAA08BB089801012E000C440BB0
:10017000550B281939094A095B09DC010E948E0FC9
:1001800024EB30E040E050E00E94640F820E931EAA
:10019000A41EB51E8C169D062CF0E8018016910653
:1001A0000CF4E4012297CC0FDD1F2FB7F8948F2DAC
:1001B00090E0FC01EE0FFF1FE80FF91FE452FD4F26
:1001C000D283C1832FBFDF91CF911F910F91FF90F9
:1001D000BF90AF909F908F9008958CBD9DBD089566
:1001E00090E0FC01EC55FF4F249180579F4FFC019C
:1001F0008491882399F090E0880F991FFC01EA57B9
:10020000FF4FA591B491FC01E458FF4F8591949163
:100210008FB7F894EC91E22BEC938FBF089590E0A8
:10022000FC01E859FF4F2491FC01EC55FF4F34913C
:10023000FC01E057FF4FE491EE23C9F0222339F08F
:10024000233001F1A8F4213019F1223029F1F0E036
:10025000EE0FFF1FE458FF4FA591B4918FB7F894AC
:10026000EC91611126C030953E233C938FBF0895D9
:100270002730A9F02830C9F0243049F78091800058
:100280008F7D03C0809180008F7780938000DFCFC7
:1002900084B58F7784BDDBCF84B58F7DFBCF809114
:1002A000B0008F778093B000D2CF8091B0008F7D67
:1002B000F9CF3E2BDACF3FB7F8948091EC019091C3
:1002C000ED01A091EE01B091EF0126B5A89B05C00C
:1002D0002F3F19F00196A11DB11D3FBFBA2FA92FC5
:1002E000982F8827BC01CD01620F711D811D911DC2
:1002F00042E0660F771F881F991F4A95D1F708952E
:100300008F929F92AF92BF92CF92DF92EF92FF9225
:100310004B015C010E945B016B017C010E945B014F
:100320006C197D098E099F09683E7340810591050E
:10033000A8F321E0821A9108A108B10888EEC80E3E
:1003400083E0D81EE11CF11C81149104A104B104C6
:1003500029F7FF90EF90DF90CF90BF90AF909F90E4
:100360008F9008952FB7F8946091E8017091E9019A
:100370008091EA019091EB012FBF0895AF92BF9257
:10038000CF92DF92EF92FF920F931F93CF93DF9361
:100390006C017B018B01040F151FEB015E01AE1890
:1003A000BF08C017D10759F06991D601ED91FC91B2
:1003B0000190F081E02DC6010995892B79F7C501DF
:1003C000DF91CF911F910F91FF90EF90DF90CF9031
:1003D000BF90AF900895FC01538D448D252F30E0E0
:1003E000842F90E0821B930B541710F0CF96089542
:1003F00001970895FC01918D828D981761F0A28D6F
:10040000AE0FBF2FB11D5D968C91928D9F5F9F7334
:10041000928F90E008958FEF9FEF08950F931F93B1
:100420000E94B2016093FF01709300028093010269
:100430009093020287EF91E00E94FA0197FF1DC09E
:100440000E94B2010091FF0110910002209101026F
:1004500030910202601B710B820B930B0091FB0128
:100460001091FC012091FD013091FE016017710790
:1004700082079307F8F28FEF9FEF1F910F91089576
:10048000FC01918D828D981731F0828DE80FF11D5E
:10049000858D90E008958FEF9FEF0895FC01918D79
:1004A000228D892F90E0805C9F4F821B91098F7372
:1004B0009927089587EF91E00E944E0221E0892B51
:1004C00009F420E0822F089580E090E0892B29F044
:1004D0000E945A0281110C9400000895FC01A48D21
:1004E000A80FB92FB11DA35ABF4F2C91848D90E056
:1004F00001968F739927848FA689B7892C93A08939
:10050000B1898C91837080648C93938D848D9813C2
:1005100006C00288F389E02D80818F7D8083089555
:10052000EF92FF920F931F93CF93DF93EC0181E043
:10053000888F9B8D8C8D98131AC0E889F9898081EA
:1005400085FF15C09FB7F894EE89FF896083E8891D
:10055000F98980818370806480839FBF81E090E00F
:10056000DF91CF911F910F91FF90EF900895F62E9C
:100570000B8D10E00F5F1F4F0F731127E02E8C8D36
:100580008E110CC00FB607FCFACFE889F98980817B
:1005900085FFF5CFCE010E946E02F1CFEB8DEC0FFF
:1005A000FD2FF11DE35AFF4FF0829FB7F8940B8F98
:1005B000EA89FB8980818062CFCFCF93DF93EC0102
:1005C000888D8823B9F0AA89BB89E889F9898C913B
:1005D00085FD03C0808186FD0DC00FB607FCF7CFF7
:1005E0008C9185FFF2CF808185FFEDCFCE010E94F7
:1005F0006E02E9CFDF91CF9108950F931F93CF93B0
:10060000DF93FB01A381B481109731F480E0DF9187
:10061000CF911F910F910895EB018C01ED91FC9109
:1006200011970688F789E02DCD01099529813A8136
:10063000882321F0232B69F081E0E9CF232B49F0B7
:10064000D801ED91FC910190F081E02DBE01C8012F
:1006500009958B819C81892BC9F2D801ED91FC9180
:100660000190F081E02DBE01C8010995CFCF0F9315
:100670001F93CF93DF93D901980163E070E041307D
:10068000510539F064E070E04230510511F070E03E
:1006900060E0EC01E881F9810680F781E02DAD0191
:1006A000DF91CF911F910F910994CF93DF93DB01DD
:1006B000BA01EC01EBA9FCA9309729F0A901CD0101
:1006C000DF91CF910994DF91CF910895FC012081B2
:1006D0002EBD9B012150310941F051810DB407FE1F
:1006E000FDCF4EB55EBD4193F5CF61507109860FC8
:1006F000971F0DB407FEFDCF2EB5FC012083089592
:10070000E091F101F091F20180819091F001892B4B
:1007100080830895E091F101F091F2019081809140
:10072000F00180958923808308958EBD00000DB46B
:1007300007FEFDCF8EB50895AF92BF92CF92DF92A4
:10074000EF92FF920F931F93CF93DF93CDB7DEB756
:1007500028970FB6F894DEBF0FBECDBF8C017B018A
:100760006A018091F4018333E1F45801A40EB51EAF
:10077000A016B10609F46FC00E948A0380EF0E94A0
:100780009503812F0E949503802F0E9495030F5F90
:100790001F4FF70181917F010E9495030E94800302
:1007A000E7CF5B01A40EB51E8433C1F40E948A0317
:1007B00019830A838D2D80688B83CC8264E070E07E
:1007C000CE0101960E946603AE14BF0409F441C035
:1007D000F70181917F010E949503F6CF0E948A0361
:1007E0000F3F110509F028F419820A8384E08B83F6
:1007F0000CC017FD17C019820A8333E016950795C0
:100800003A95E1F7007E0C600B8386E0C816D104B0
:10081000A0F5F701DE011496EA15FB0599F0819128
:100820008D93FACFC80126E0969587952A95E1F732
:10083000807E19830A830115104C10F48461D7CF90
:100840008C61D5CFB6016D5F7F4FCE0101960E94BE
:1008500066030E948003C60128960FB6F894DEBF97
:100860000FBECDBFDF91CF911F910F91FF90EF9001
:10087000DF90CF90BF90AF90089563E070E0CE011D
:1008800001960E946603F70181917F010E94950302
:10089000AE14BF04C1F7DDCFCF93DF931F92CDB766
:1008A000DEB7898341E050E0BE016F5F7F4F90E08B
:1008B00080E00E949C030F90DF91CF910895CF9329
:1008C000DF931F92CDB7DEB72091F50130E0322FD4
:1008D0002227260F371F90E0982F8827498341E071
:1008E00050E0BE016F5F7F4F820F931F0E949C03F9
:1008F0000F90DF91CF9108950895EF92FF920F939B
:100900001F93CF93DF93CDB7DEB72E970FB6F89432
:10091000DEBF0FBECDBF7B018A01BE016F5F7F4F7F
:100920009EE0DB011D929A95E9F742E00E37110532
:1009300028F044E00F3F100709F44AE021114C5F12
:1009400080688983222311F080E88A838A810E37A8
:100950001105B0F5802B8A83FE013396222321F006
:10096000108211821282138280910E0390910F03E4
:1009700050E0DC01ED91FC910280F381E02D0995BE
:10098000E114F10481F00115110569F080910E0365
:1009900090910F03DC01ED91FC910280F381E02D39
:1009A000A801B70109952E960FB6F894DEBF0FBEC9
:1009B000CDBFDF91CF911F910F91FF90EF900895E0
:1009C0000F3F100739F08E678A831B830C83FE016B
:1009D0003596C4CF8F678A838FEF89878A87FE0118
:1009E0003B96BCCF0F931F93CF93DF938C01EB010A
:1009F000209739F4EC0109900020E9F72197C81BF2
:100A0000D90B6BE073E081E093E00E94FD02882344
:100A100001F180910E0390910F03009789F480916A
:100A20000C0390910D030297A1F421E0AE01B801EF
:100A300081E090E0DF91CF911F910F910C947D04A4
:100A4000DC01ED91FC910688F789E02D0995811173
:100A5000E6CFDF91CF911F910F910895FC01648142
:100A60007581808191810C94F204FB01019000203A
:100A7000E9F73197AF01461B570BDC01ED91FC9173
:100A80000280F381E02D09948F929F92AF92BF92E2
:100A9000EF92FF920F931F93CF93DF93CDB7DEB703
:100AA000A1970FB6F894DEBF0FBECDBF7C01FA014F
:100AB000CB0119A2223008F42AE08E010F5D1F4FEE
:100AC000822E912CB12CA12CBF01A50194010E9472
:100AD000CD0FF901CA016A300CF5605DD8016E9343
:100AE0008D01232B242B252B79F790E080E01097A4
:100AF00021F0BD01C7010E943505A1960FB6F894FB
:100B0000DEBF0FBECDBFDF91CF911F910F91FF9040
:100B1000EF90BF90AF909F908F900895695CDECF6B
:100B20008F929F92AF92BF92CF92DF92EF92FF92FD
:100B30000F931F93CF93DF937C01EB016C0182E055
:100B4000C80ED11C4701E5E08E0E911C10E000E0BC
:100B5000F60141916F0150E070E060E02AE0CE01C3
:100B60000E9444055C01E881F9810190F081E02D4B
:100B70006EE2CE0109958A0D9B1D080F191FC8143E
:100B8000D90431F7F701458150E070E060E02AE0D8
:100B9000CE010E944405800F911FDF91CF911F91DC
:100BA0000F91FF90EF90DF90CF90BF90AF909F900C
:100BB0008F900895CF93DF93D0E0C0E0009731F09D
:100BC000BC0187EF91E00E943505EC0164E371E020
:100BD00087EF91E00E9435058C0F9D1FDF91CF912B
:100BE0000895FC0180819181009711F00C94AC1064
:100BF00008950F931F93CF93DF93EC018881998120
:100C0000009759F02A813B812617370730F081E0A1
:100C1000DF91CF911F910F9108958B016F5F7F4FEF
:100C20000E943511009759F0998388831B830A83AA
:100C30002C813D81232B59F7FC011082E8CF80E005
:100C4000E7CFEF92FF920F931F93CF93DF93EC01C7
:100C50007B018A01BA010E94F9052881398181113D
:100C600014C02115310519F0C9010E94AC10198278
:100C700018821D821C821B821A82CE01DF91CF91C5
:100C80001F910F91FF90EF9008951D830C83B70182
:100C9000C9010E940B12F1CFFB0101900020E9F77E
:100CA0003197AF01461B570B0C9421060F931F93EE
:100CB000CF93DF938C01EB018B819C81009741F1F5
:100CC000DC01ED91FC910688F789E02D09958823D8
:100CD00091F08B819C81DC01ED91FC910680F78184
:100CE000E02D09958B819C81DC01ED91FC910488BC
:100CF000F589E02D09958B819C81009739F0DC0105
:100D0000ED91FC91048CF58DE02D09951C821B82E0
:100D10001C861B8666E371E0CE010F960E944C068E
:100D200066E371E0CE0145960E944C0666E371E0F1
:100D3000CE014B960E944C0618A61FA21D861E8649
:100D40001A821982D801ED91FC910680F781E02D7D
:100D500030E020E050E040E061E070E0C801DF9169
:100D6000CF911F910F910994FC011182108213827F
:100D70001282158214826115710551F0FB010190F8
:100D80000020E9F73197AF01461B570B0C94210661
:100D90000895AF92BF92CF92DF92EF92FF920F939E
:100DA0001F93CF93DF9300D000D0CDB7DEB78C0177
:100DB0006B017A018091F4018333E9F45B016801EE
:100DC000C40ED51EC016D106A9F10E948A038FE079
:100DD0000E949503812F0E949503802F0E94950306
:100DE0000F5F1F4F80E00E949503F50181935F0123
:100DF0000E948003E7CF843369F50E948A03198338
:100E00000A838F2D8F778B83EC8264E070E0CE01B4
:100E100001960E946603A70170E060E0C6010E948F
:100E2000FB11E114F10421F0B701C6010E94660331
:100E30000E948003C7010F900F900F900F90DF91D9
:100E4000CF911F910F91FF90EF90DF90CF90BF90C7
:100E5000AF9008950E948A030F3F110509F030F406
:100E600019820A831B8263E070E0D1CF17FD0BC0AB
:100E700019820A8333E0169507953A95E1F7007ECB
:100E800008600B83F0CFC80126E0969587952A95D8
:100E9000E1F7807E19830A830115104C18F48061F4
:100EA0008B83E1CF8861FCCFCF93DF931F92CDB7C7
:100EB000DEB741E050E0BE016F5F7F4F90E080E021
:100EC0000E94C90689810F90DF91CF910895CF9339
:100ED000DF93C4E1D0E00E945407882361F061E011
:100EE00070E080E090E00E9480012197A1F780E00F
:100EF000DF91CF91089581E0FBCFCF92DF92EF9207
:100F0000FF920F931F93CF93DF93CDB7DEB7C454F7
:100F1000D1090FB6F894DEBF0FBECDBFFC018281B0
:100F20009381A481B58123968CAF9DAFAEAFBFAF47
:100F3000239721E023962FAF239723964CAD5DADE9
:100F40006EAD7FAD23974BAB5CAB6DAB7EAB89AF2A
:100F50009AAFABAFBCAF8DA79EA7AFA7B8AB28AB7E
:100F60004DA55EA56FA578A94FA358A769A77AA735
:100F70002EAB4BA95CA96DA97EA949A35AA36BA36B
:100F80007CA38B8F9C8FAD8FBE8F42E351E05C8B37
:100F90004B8B3FEF3D8B3E8B3F8B188E5E874D8793
:100FA0002AA7CFA0D8A4E9A4FAA4CF86D88AE98A30
:100FB000FA8A2CA309A11AA12BA13CA109871A879F
:100FC0002B873C875A8349838B839C83AD83BE8365
:100FD0008091F6018111ABC060E372E080E090E0A7
:100FE0000E948001DFB6F8940AE910E03EEAE32EA1
:100FF00030E0F32E8091F301811122C0F801849139
:10100000F7019491E82FF0E0EE0FFF1FEA57FF4F32
:10101000A591B4918C91982321F461E08AE00E941B
:101020000F018AE00E94F0008CB580618CBD8CB508
:1010300080648CBD8DE00E94F0008BE00E94F00087
:101040008091F3018F5F8093F301DFBEF80104917B
:10105000E02FF0E0EE0FFF1FE458FF4F85919491D1
:101060009093F2018093F101F701E490E092F00196
:101070008AE00E94F0000E94800380E591E00E94D7
:10108000ED0084E38093F40180E80E944C040E9408
:101090006707882309F481C088E00E944C040E94FD
:1010A0005407883009F079C080E10E944C040E9406
:1010B0005407803109F071C080E00E944C040E9406
:1010C0005407182F811169C041E050E0BE016D5BEB
:1010D0007F4F8FE190E00E94C90624968FAD249740
:1010E000833009F05AC080E48093F50142E06EE15C
:1010F00070E0812F0E945F0442E06FE170E0812F79
:101100000E945F041F5F143089F740E06EE170E0D9
:10111000812F0E945F0440E06FE170E0812F0E9408
:101120005F041F5F183089F781E08093F60180E546
:1011300091E00E94ED0046E050E060E071E089E05F
:1011400090E00E949C0344E050E0BE016D5F7F4F41
:101150008FE090E00E949C0344E050E0BE01615F9C
:101160007F4F81E090E00E949C0344E050E0BE018C
:101170006B5E7F4F85E090E00E949C0381E08C874E
:1011800089859A85AB85BC858093C6029093C702FA
:10119000A093C802B093C9026FC087E38093F401A3
:1011A00080E80E944C040E946707882339F188E098
:1011B0000E944C040E945407883001F580E10E948F
:1011C0004C040E945407182F8031C1F480E00E9423
:1011D0004C040E945407811111C041E050E0BE014F
:1011E0006D5B7F4F89E390E00E94C90624968FAD26
:1011F0002497843019F41093F50196CF83E38093FC
:10120000F40180E80E944C040E946707882391F152
:1012100080E10E944C040E945407803159F582E11C
:101220000E944C040E945407823121F580E00E9404
:101230004C040E94540781111DC084E08093F50185
:1012400015E525961FAF259741E050E0BE016C5B88
:101250007F4F8BE190E00E949C0324961FAF249760
:1012600041E050E0BE016D5B7F4F8AE190E00E945B
:101270009C035ACF1092F401CC5BDF4F0FB6F89469
:10128000DEBF0FBECDBFDF91CF911F910F91FF90B9
:10129000EF90DF90CF900895CF92DF92EF92FF9280
:1012A0000F931F93CF93DF9300D000D000D0CDB722
:1012B000DEB78B0182309105C1F08330910529F1B1
:1012C000019721F487E391E00E94DA0526960FB694
:1012D000F894DEBF0FBECDBFDF91CF911F910F916C
:1012E000FF90EF90DF90CF9008956CE471E087EF6E
:1012F00091E00E943505C8010E94DA0570E060E0C7
:1013000085E691E00E94F204E1CF6FE671E087EF9D
:1013100091E00E9435050E94B201C090E301D09097
:10132000E401E090E501F090E601AB01BC014C194D
:101330005D096E097F092AE087EF91E00E9444056C
:101340008AE791E00E94DA05C8010E94DA05B80137
:10135000CE0101960E94B4068D819E81892BC9F031
:101360006EE771E089819A810E940212892B89F4CB
:101370008EE791E00E94DA0561E088E00E940F01AB
:1013800090E080E00E948800CE0101960E94F10565
:101390009DCF8DE891E00E94DA0561E089E00E942E
:1013A0000F018AE590E0EECF1F920F920FB60F92D9
:1013B00011242F933F938F939F93AF93BF9380916B
:1013C000E8019091E901A091EA01B091EB0130911F
:1013D000E70123E0230F2D3758F50196A11DB11D1C
:1013E0002093E7018093E8019093E901A093EA013B
:1013F000B093EB018091EC019091ED01A091EE0191
:10140000B091EF010196A11DB11D8093EC01909365
:10141000ED01A093EE01B093EF01BF91AF919F91C9
:101420008F913F912F910F900FBE0F901F901895A5
:1014300026E8230F0296A11DB11DD2CF1F920F9255
:101440000FB60F9211242F933F934F935F936F9397
:101450007F938F939F93AF93BF93EF93FF9387EF08
:1014600091E00E946E02FF91EF91BF91AF919F9129
:101470008F917F916F915F914F913F912F910F903D
:101480000FBE0F901F9018951F920F920FB60F92DC
:1014900011242F938F939F93EF93FF93E091070273
:1014A000F09108028081E0910D02F0910E0282FD20
:1014B0001BC09081809110028F5F8F732091110269
:1014C000821741F0E0911002F0E0E950FE4F958F55
:1014D00080931002FF91EF919F918F912F910F9028
:1014E0000FBE0F901F9018958081F4CF1F920F921E
:1014F0000FB60F9211242F933F934F935F936F93E7
:101500007F938F939F93AF93BF93CF93DF93EF938B
:10151000FF938091E201C0910003D0E087FF24C0D7
:1015200010928500109284008091E2018F5F809379
:10153000E2018091E201082E000C990B8C179D07A7
:1015400024F48091E2018C30C4F180918400909168
:101550008500049680349C4908F47AC08091840008
:1015600090918500049676C08091E201082E000CCF
:10157000990B8C179D07C4F6E091E2018E2FEE0FB8
:10158000990BFC01EE0FFF1FE80FF91FE452FD4F0E
:10159000808186FFC9CFE091E2018E2FEE0F990B7B
:1015A000FC01EE0FFF1FE80FF91FE452FD4F808191
:1015B00060E08F730E940F01B7CF209184003091BB
:1015C0008500E091E2018E2FEE0F990BFC01EE0FEA
:1015D000FF1FE80FF91FE452FD4F81819281820FB6
:1015E000931F9093890080938800E091E2018E2FF1
:1015F000EE0F990BFC01EE0FFF1FE80FF91FE452ED
:10160000FD4F808186FF11C0E091E2018E2FEE0F29
:10161000990BFC01EE0FFF1FE80FF91FE452FD4F7D
:10162000808161E08F730E940F01FF91EF91DF9144
:10163000CF91BF91AF919F918F917F916F915F916A
:101640004F913F912F910F900FBE0F901F901895C3
:1016500080E49CE990938900809388008FEF8093C9
:10166000E201E3CF1092FA011092F90188EE93E0C3
:10167000A0E0B0E08093FB019093FC01A093FD01FA
:10168000B093FE0184E191E09093F8018093F7011B
:1016900085EC90E0909304028093030284EC90E048
:1016A000909306028093050280EC90E090930802EC
:1016B0008093070281EC90E090930A0280930902E4
:1016C00082EC90E090930C0280930B0286EC90E009
:1016D00090930E0280930D0210921002109211024C
:1016E000109212021092130282E391E090939502FD
:1016F0008093940210929602109297021092980290
:101700001092990290939B0280939A0210929C02ED
:1017100010929D0210929E0210929F029093A1023D
:101720008093A0021092A2021092A3021092A4022F
:101730001092A5029093A7028093A6021092A8028D
:101740001092A9021092AA021092AB029093AD02DD
:101750008093AC021092AE021092AF021092B002CF
:101760001092B1029093B3028093B2021092B4022D
:101770001092B5021092B6021092B7029093B9027D
:101780008093B8021092BA021092BB021092BC026F
:101790001092BD029093BF028093BE021092C002CD
:1017A0001092C1021092C2021092C3029093CB0217
:1017B0008093CA021092CC021092CD021092CE02F7
:1017C0001092CF029093C5028093C4021092C60279
:1017D0001092C7021092C8021092C9029093D102CF
:1017E0008093D0021092D2021092D3021092D402AF
:1017F0001092D5029093D7028093D6021092D8020D
:101800001092D9021092DA021092DB0290934003F8
:1018100080933F03109241031092420310924303BE
:101820001092440390933A038093390380EC8093A1
:101830003B0388EA80933C0382E080933D038093DE
:101840003E03809100038C3008F043C091E0980F74
:10185000909300038093360390E0FC01EE0FFF1F8E
:10186000E80FF91FE452FD4F88EB9BE092838183E0
:1018700086E291E0909302038093010366E371E0B6
:1018800083E093E00E94B40666E371E080E193E0B8
:101890000E94B40666E371E08AE193E00E94B40618
:1018A00066E371E080E293E00E94B40666E371E0D3
:1018B00086E293E00E94B40666E371E08CE293E076
:1018C0000E94B406109235031092340310920B0359
:1018D00008958FEF80933603CBCFCF93DF93CDB7AF
:1018E000DEB762970FB6F894DEBF0FBECDBF789417
:1018F00084B5826084BD84B5816084BD85B5826015
:1019000085BD85B5816085BD80916E0081608093C5
:101910006E0010928100809181008260809381002E
:10192000809181008160809381008091800081603E
:10193000809380008091B10084608093B100809199
:10194000B00081608093B00080917A0084608093C1
:101950007A0080917A00826080937A0080917A0088
:10196000816080937A0080917A00806880937A0009
:101970001092C10089E00E94F00088E00E94F0000F
:10198000809136038C3008F050C082E00E94F00055
:1019900080913603282F30E0F901EE0FFF1FE20F90
:1019A000F31FE452FD4F9081907C926090831092DF
:1019B0003703109238032CE0622F0E94FE0F829FA3
:1019C000B001112430E020E0AB01420F531FFA01B7
:1019D000EE0FFF1FE40FF51FE452FD4F908196FDBF
:1019E00016C02F5F3F4F2C30310571F781110FC0AA
:1019F0001092800082E08093810010928500109206
:101A00008400B19A80916F00826080936F00E091B2
:101A100036038E2F90E0FC01EE0FFF1FE80FF91F39
:101A2000E452FD4F80818064808390E080E00E94DA
:101A30008800E0910702F091080282E08083E09143
:101A40000302F09104021082E0910502F091060277
:101A50008FEC808310920F02E0910B02F0910C0248
:101A600086E08083E0910902F0910A028081806122
:101A70008083E0910902F0910A028081886080836E
:101A8000E0910902F0910A02808180688083E091F0
:101A90000902F0910A0280818F7D80838DE991E0B7
:101AA0000E94DA0582E391E09A83898380913B0367
:101AB00090913C03A0913D03B0913E038B839C83A6
:101AC000AD83BE83CE0101960E947D076CEA71E072
:101AD00083E093E00E944C0680E590E090930A0337
:101AE0008093090310920B0310920D0310920C03C4
:101AF00010920F0310920E0368EB71E080E193E007
:101B00000E944C06109217031092160310921803AD
:101B100081E08093190366E371E08AE193E00E941B
:101B20004C0666E371E080E293E00E944C0666E3B7
:101B300071E086E293E00E944C0666E371E08CE27D
:101B400093E00E944C0610923303109232030E94DD
:101B5000B201611571058105910511F00E945B0FBD
:101B60008CE499E0909335038093340380E0E82E71
:101B700080E0F82E0E94B201AB01BC018091E3012C
:101B80009091E401A091E501B091E60188579C4E47
:101B9000AF4FBF4F84179507A607B70708F084C05B
:101BA0000E94B2016093E3017093E4018093E50128
:101BB0009093E6018AEB91E00E94DA0587EF91E0CD
:101BC0000E944E02181619060CF06EC066E371E012
:101BD000CE010D960E94B4060E940E0297FD1EC013
:101BE0008D309105D9F089831A8209891A890F5F8E
:101BF0001F4FB801CE010D960E94F905882361F3AD
:101C00002D853E8589899A89BE016F5F7F4F820F3E
:101C1000931F0E940B121A8B098BDECF63EC71E0CD
:101C200087EF91E00E94350549895A896D857E8547
:101C300087EF91E00E94BE0164E371E087EF91E0DD
:101C40000E94350518861F821A8619861C861B86F7
:101C50006D857E856115710531F049895A89CE01FE
:101C600007960E9421061A8219821C821B821E82FC
:101C70001D826F8178856115710531F04B855C851A
:101C8000CE0101960E942106CE0101960E942E05EA
:101C9000CE0101960E94F105CE0107960E94F10542
:101CA000CE010D960E94F105E114F10409F462CF12
:101CB0000E945A02882309F45DCF0E9400005ACF87
:101CC000CF93DF9300D0CDB7DEB786E291E090935B
:101CD0000203809301036BE073E081E093E00E94D4
:101CE000FD02882381F180910C0390910D030297EE
:101CF00021F583E0898388EE8A8380910E03909199
:101D00000F03009789F480910C0390910D030297C3
:101D1000A1F420E042E050E0BE016F5F7F4F88E019
:101D200090E00E947D0409C0DC01ED91FC910688E1
:101D3000F789E02D09958111E6CF6BE073E081E032
:101D400093E00E9456068CE293E00E94F10586E241
:101D500093E00E94F10580E293E00E94F1058AE1A0
:101D600093E00E94F10580E193E00E94F10583E099
:101D700093E00E94F1050F900F90DF91CF910895AD
:101D80008F929F92AF92BF92CF92DF92EF92FF928B
:101D9000CF93DF93EC01688179818A819B81611502
:101DA00071058105910521F464E279ED8BE597E0F9
:101DB0002DE133EF41E050E00E94640F49015A01E8
:101DC0009B01AC01A7EAB1E40E94830F6B017C0187
:101DD000ACEEB4EFA50194010E94910FC60ED71E80
:101DE000E81EF91EF7FE06C081E0C81AD108E10816
:101DF00080E8F80AC882D982EA82FB82C701B6016C
:101E00009F77DF91CF91FF90EF90DF90CF90BF90C1
:101E1000AF909F908F9008958F929F92AF92BF92B4
:101E2000CF92DF92EF92FF926091060170910701CD
:101E30008091080190910901611571058105910555
:101E400021F464E279ED8BE597E02DE133EF41E099
:101E500050E00E94640F49015A019B01AC01A7EABE
:101E6000B1E40E94830F6B017C01ACEEB4EFA501DD
:101E700094010E94910FC60ED71EE81EF91EF7FEB0
:101E800006C081E0C81AD108E10880E8F80AC092CB
:101E90000601D0920701E0920801F0920901C70102
:101EA000B6019F77FF90EF90DF90CF90BF90AF90FB
:101EB0009F908F900895609306017093070180931F
:101EC0000801909309010895052E97FB1EF40094D4
:101ED0000E947B0F57FD07D00E94CD0F07FC03D057
:101EE0004EF40C947B0F50954095309521953F4FC3
:101EF0004F4F5F4F089590958095709561957F4FF6
:101F00008F4F9F4F08950E94EF0FA59F900DB49F94
:101F1000900DA49F800D911D11240895B7FF0C947E
:101F2000830F0E94830F821B930B08952F923F9281
:101F30004F925F926F927F928F929F92AF92BF92D9
:101F4000CF92DF92EF92FF920F931F93CF93DF9385
:101F5000CDB7DEB7CA1BDB0B0FB6F894DEBF0FBEE2
:101F6000CDBF09942A88398848885F846E847D842F
:101F70008C849B84AA84B984C884DF80EE80FD8031
:101F80000C811B81AA81B981CE0FD11D0FB6F894A7
:101F9000DEBF0FBECDBFED010895A1E21A2EAA1B30
:101FA000BB1BFD010DC0AA1FBB1FEE1FFF1FA21709
:101FB000B307E407F50720F0A21BB30BE40BF50B06
:101FC000661F771F881F991F1A9469F7609570958F
:101FD000809590959B01AC01BD01CF010895A29F12
:101FE000B001B39FC001A39F700D811D1124911DED
:101FF000B29F700D811D1124911D0895991B79E0E8
:1020000004C0991F961708F0961B881F7A95C9F788
:1020100080950895EE0FFF1F0590F491E02D09942F
:102020000F931F93CF93DF938230910510F482E0DA
:1020300090E0E0914703F091480330E020E0B0E009
:10204000A0E0309799F42115310509F44AC0281B06
:10205000390B24303105D8F58A819B8161157105D2
:1020600089F1FB0193838283FE0111C0408151817C
:102070000281138148175907E0F04817590799F46E
:10208000109761F012960C93129713961C93329648
:10209000CF01DF91CF911F910F91089500934703D6
:1020A00010934803F4CF2115310551F0421753071F
:1020B00038F0A901DB019A01BD01DF01F801C1CFB0
:1020C000EF01F9CF9093480380934703CDCFFE01F2
:1020D000E20FF31F819391932250310939832883B2
:1020E000D7CF2091450330914603232B41F4209113
:1020F0000C0130910D01309346032093450320914C
:102100000A0130910B012115310541F42DB73EB77D
:1021100040910E0150910F01241B350BE0914503B6
:10212000F0914603E217F307A0F42E1B3F0B28178C
:10213000390778F0AC014E5F5F4F2417350748F040
:102140004E0F5F1F50934603409345038193919335
:102150009FCFF0E0E0E09CCFCF93DF930097E9F0D2
:10216000FC01329713821282A0914703B091480379
:10217000ED0130E020E01097A1F420813181820F41
:10218000931F20914503309146032817390709F022
:1021900061C0F0934603E0934503DF91CF9108952A
:1021A000EA01CE17DF07E8F54A815B819E01411500
:1021B0005105B1F7E901FB83EA8349915991C40FB5
:1021C000D51FEC17FD0761F4808191810296840F81
:1021D000951FE90199838883828193819B838A83F8
:1021E000F0E0E0E012968D919C9113970097B9F57D
:1021F0002D913C911197CD010296820F931F209152
:102200004503309146032817390739F6309751F5C1
:102210001092480310924703B0934603A0934503DE
:10222000BCCFD383C28340815181840F951FC817CF
:10223000D90761F44E5F5F4F88819981480F591F1C
:10224000518340838A819B81938382832115310549
:1022500009F0B0CFF0934803E09347039ECFFD0110
:10226000DC01C0CF13821282D7CFB0E0A0E0EBE355
:10227000F1E10C94980F8C01009751F4CB010E946E
:1022800010108C01C801CDB7DEB7E0E10C94B40F9B
:10229000FC01E60FF71F9C0122503109E217F307FA
:1022A00008F49DC0D901CD91DC911197C617D707CD
:1022B00098F0C530D10530F3CE0104978617970703
:1022C00008F3C61BD70B2297C193D1936D937C93D0
:1022D000CF010E94AC10D6CF5B01AC1ABD0A4C01F5
:1022E0008C0E9D1EA0914703B0914803512C412CA8
:1022F000F12CE12C109731F5809145039091460324
:102300008815990509F05CC04616570608F058C0B4
:1023100080910A0190910B01009741F48DB79EB70F
:1023200040910E0150910F01841B950BE817F9079E
:1023300008F055C0F0934603E0934503F90171831B
:102340006083A0CF8D919C91119712966C901297FB
:1023500013967C901397A815B90559F56C0142E0C6
:10236000C40ED11CCA14DB0420F1AC014A195B096C
:10237000DA011296159780F062827382518340834E
:10238000D9016D937C93E114F10471F0D701139698
:10239000FC93EE93129776CF22968C0F9D1FF90136
:1023A00091838083F301EFCFF0934803E0934703D9
:1023B00069CF4816590608F42C017D01D3019ACF44
:1023C000CB010E9410107C01009749F0AE01B801CA
:1023D0000E94F211C8010E94AC10870153CF10E097
:1023E00000E050CFFB01DC0102C001900D92415092
:1023F0005040D8F70895DC0101C06D934150504022
:10240000E0F70895FB01DC018D9101908019011026
:10241000D9F3990B0895FB01DC0101900D92002086
:10242000E1F7089510E0CDE5D0E004C0FE010E9480
:102430000A102196CE35D107C9F7F894FFCF7469F9
:10244000692D3031010000000000490380000000C8
:1024500000009002BE01EB01DD024E02FA014002D3
:10246000000000005606FD0237035503000000007F
:1024700090050D0A005B5753635D20446973636FD9
:102480006E6E6563746564210A005B5753635D205B
:10249000436F6E6E656374656420746F2075726C33
:1024A0003A2000436F6E6E6563746564003C3C3C8B
:1024B000207265706C792000206D73004163636544
:1024C00073732044656E69656421004163636573BD
:1024D00073204772616E74656421000A5B676574DE
:1024E00053746174696349505D003139322E31365D
:1024F000382E322E31002F000A3E3E3E20524551EA
:1025000000496E7075742066726F6D205669727422
:1025100075616C205465726D696E616C3A200000C3
:107E0000112484B714BE81FFF0D085E080938100F7
:107E100082E08093C00088E18093C10086E0809377
:107E2000C20080E18093C4008EE0C9D0259A86E02C
:107E300020E33CEF91E0309385002093840096BBD3
:107E4000B09BFECF1D9AA8958150A9F7CC24DD24C4
:107E500088248394B5E0AB2EA1E19A2EF3E0BF2EE7
:107E6000A2D0813461F49FD0082FAFD0023811F036
:107E7000013811F484E001C083E08DD089C08234E0
:107E800011F484E103C0853419F485E0A6D080C0E4
:107E9000853579F488D0E82EFF2485D0082F10E0AE
:107EA000102F00270E291F29000F111F8ED06801E7
:107EB0006FC0863521F484E090D080E0DECF843638
:107EC00009F040C070D06FD0082F6DD080E0C81688
:107ED00080E7D80618F4F601B7BEE895C0E0D1E017
:107EE00062D089930C17E1F7F0E0CF16F0E7DF06D8
:107EF00018F0F601B7BEE89568D007B600FCFDCFD4
:107F0000A601A0E0B1E02C9130E011968C91119780
:107F100090E0982F8827822B932B1296FA010C0160
:107F200087BEE89511244E5F5F4FF1E0A038BF0790
:107F300051F7F601A7BEE89507B600FCFDCF97BE46
:107F4000E89526C08437B1F42ED02DD0F82E2BD052
:107F50003CD0F601EF2C8F010F5F1F4F84911BD097
:107F6000EA94F801C1F70894C11CD11CFA94CF0C13
:107F7000D11C0EC0853739F428D08EE10CD085E9AC
:107F80000AD08FE07ACF813511F488E018D01DD067
:107F900080E101D065CF982F8091C00085FFFCCF94
:107FA0009093C60008958091C00087FFFCCF809118
:107FB000C00084FD01C0A8958091C6000895E0E648
:107FC000F0E098E1908380830895EDDF803219F02E
:107FD00088E0F5DFFFCF84E1DECF1F93182FE3DFCA
:107FE0001150E9F7F2DF1F91089580E0E8DFEE27F6
:047FF000FF270994CA
:027FFE00040479
:00000001FF
